:1000000000200020B9010000E5010000E50100002A
:10001000E5010000E5010000E5010000E501000048
:10002000E5010000E5010000E5010000E501000038
:10003000E5010000E5010000E5010000E501000028
:10004000E5010000E5010000E5010000E501000018
:10005000E5010000E5010000E5010000E501000008
:10006000E5010000E5010000E5010000E5010000F8
:10007000E5010000E5010000E5010000E5010000E8
:10008000E5010000E5010000E5010000E5010000D8
:10009000E501000010B5064C2378002B07D1054B75
:1000A000002B02D0044800E000BF0123237010BDE4
:1000B0006C000020000000009C02000008B5084B06
:1000C000002B03D00748084900E000BF0748036839
:1000D000002B03D0064B002B00D0984708BDC0462C
:1000E000000000009C02000070000020680000205A
:1000F00000000000164B002B00D1144B9D464022FF
:1001000092029A1A924600218B460F461348144ACF
:10011000121A00F0A9F80F4B002B00D098470E4B95
:10012000002B00D098470020002104000D000D484E
:10013000002802D00C4800E000BF00F06FF820005B
:10014000290000F033F800F053F8C0460000080022
:100150000020002000000000000000006C000020D3
:1001600088000020000000000000000080B582B080
:1001700000AF094B1B687B607B681B0E812B08D886
:10018000064B074A1A60074B064A1168064A0A409E
:100190001A60BD4602B080BDFC81E00F18600C40C3
:1001A00005000004E4800C40FFFFFFFE80B500AFB7
:1001B000FFF7DCFFFEE7C046064880470649074ACE
:1001C000074B9B1A03DD043BC858D050FBDCFFF7FC
:1001D00091FF0000E9010000A802000000000020DB
:1001E0006C000020FEE7C04680B500AFBD4680BD74
:1001F000084B10B5041C002B02D0002100E000BF0A
:10020000054B1868836A002B00D09847201C00F02B
:1002100033F8C046000000009802000070B50E4B95
:100220000E4D0024ED1AAD101E1CAC4204D0A300EC
:10023000F35898470134F8E700F020F8084B094DCF
:100240000024ED1AAD101E1CAC4204D0A300F358DC
:1002500098470134F8E770BD60000020600000207E
:100260006000002064000020031C8218934202D02A
:1002700019700133FAE77047FEE7C046F8B5C0468B
:10028000F8BC08BC9E467047F8B5C046F8BC08BC30
:100290009E46704743000000000000200000000060
:0802A00054FEFF7F0100000085
:1002A8000000000000000000000000000000000046
:1002B8000000000000000000000000000000000036
:1002C8009402000000000000000000000000000090
:1002D8000000000000000000000000000000000016
:1002E8000000000000000000000000000000000006
:1002F80000000000000000000000000000000000F6
:0C030800BD000000950000000000000097
:04000003000001B93F
:00000001FF
