:1000000000200020A51C0000D11C0000D11C000015
:10001000D11C0000D11C0000D11C0000D11C00002C
:10002000D11C0000D11C0000D11C0000D11C00001C
:10003000D11C0000D11C0000D11C0000D11C00000C
:10004000D10A0000990F00006D1C0000D11C0000B7
:10005000D11C0000D11C0000C50F0000D11C000005
:10006000D11C0000D11C0000D11C0000D11C0000DC
:1000700081160000D11C0000D11C0000D11C000022
:10008000D11C0000D11C0000D11C0000D11C0000BC
:10009000D11C000010B5064C2378002B07D1054B6E
:1000A000002B02D0044800E000BF0123237010BDE4
:1000B0007800002000000000B828000008B5084BB8
:1000C000002B03D00748084900E000BF0748036839
:1000D000002B03D0064B002B00D0984708BDC0462C
:1000E00000000000B82800007C0000207000002004
:1000F00000000000164B002B00D1144B9D464022FF
:1001000092029A1A924600218B460F461348144ACF
:10011000121A02F043FB0F4B002B00D098470E4BF6
:10012000002B00D098470020002104000D000D484E
:10013000002802D00C4800E000BF02F009FB2000BC
:10014000290000F081F902F0EDFAC0460000080035
:1001500000200020000000000000000078000020C7
:10016000D4010020000000000000000080B582B033
:1001700002AF0C4B01221A7001F06AF80A4B181CEE
:1001800000F0D2FF084B1968084B1B68181CFA23B3
:100190009A00074B0090081C002101F0B1F8BD4601
:1001A00080BDC04694000020CC01002098000020B3
:1001B000D103000080B500AF0CE000F031F800F092
:1001C000B9F8012000F00EF8012000F0A7FD002092
:1001D00000F008F8024B1B78002BEED1BD4680BD25
:1001E0009400002080B582B000AF78607B68002B5F
:1001F0000AD0094B9A6A094B1A60074B064A926A61
:100200000C218A439A6203E0034B044A12689A6203
:10021000BD4602B080BDC04600800C409C0000205E
:1002200080B500AFFA235B00181C00F0C5FF404BFF
:100230001B68002B04D100F097F83D4B01221A6097
:100240003B4B5B68002B04D100F092F8384B012245
:100250005A60374B9B68002B04D100F08DF8344B6B
:1002600001229A60324BDB68002B04D100F088F841
:100270002F4B0122DA602E4B1B69002B04D100F0BA
:1002800083F82B4B01221A61294B5B69002B04D1A7
:1002900000F07EF8264B01225A61254B9B69002B0A
:1002A00004D100F079F8224B01229A61204BDB69DE
:1002B000002B04D100F074F81D4B0122DA611C4BB5
:1002C0001B6A002B04D100F06FF8194B01221A624F
:1002D000174B5B6A002B04D100F06AF8144B012223
:1002E0005A62134B9B6A002B04D100F061F8104B4B
:1002F00001229A620E4BDB6A002B04D100F05CF8FD
:100300000B4B0122DA620A4B1B6B002B04D100F06D
:1003100057F8074B01221A63054B5B6B002B04D186
:1003200000F052F8024B01225A63BD4680BDC04620
:100330009401002080B582B000AF00237B600BE009
:10034000084B7A689200D358591E064B7A6892007F
:10035000D1507B6801337B607B680D2BF0DDBD469F
:1003600002B080BD9401002080B500AFBD4680BDC5
:1003700080B500AFBD4680BD80B500AFBD4680BD35
:1003800080B500AFBD4680BD80B500AFBD4680BD25
:1003900080B500AFBD4680BD80B500AFBD4680BD15
:1003A00080B500AFBD4680BD80B500AFBD4680BD05
:1003B00080B500AFBD4680BD80B500AFBD4680BDF5
:1003C00080B500AFBD4680BD80B500AFBD4680BDE5
:1003D00080B584B002AF78603960084B1968084B6B
:1003E0001B68181CFA239A00064B0090081C002179
:1003F00000F086FFBD4602B080BDC046CC010020A3
:1004000098000020D103000080B582B000AF094BF6
:100410001B687B607B681B0E812B08D8064B074A44
:100420001A60074B064A1168064A0A401A60BD4620
:1004300002B080BDFC81E00F18600C400500000494
:10044000E4800C40FFFFFFFE80B500AFFFF7DCFF4C
:10045000FFF78CFEFFF7AEFE0023181CBD4680BDE3
:1004600080B586B000AFF860B9607A60FB681B6841
:100470007B61BB680122101C9840031CDB437A6936
:100480001A40796801231940BB68081C9840031C76
:100490001A43FB681A60BD4606B080BD80B582B0C5
:1004A00000AF786039607B681A683B68DA400123E6
:1004B0001340181CBD4602B080BDC04680B584B054
:1004C00000AF78607B68002B05D07A6880231B0220
:1004D0009A4200D8C046786801F0F6FC031C1F223F
:1004E000D31AFB60FB68181CBD4604B080BDC04633
:1004F00080B584B000AF7860184BDA6B3B1C0B33CF
:10050000511E8A411A70154B154ADA63134B5A680B
:1005100007231340FB607A68124B9A4206D87A6828
:10052000114B9A4202D90123FB6001E00023FB60DA
:100530000A4B0A4A52680721101C8843011CFA68BA
:100540000A435A603B1C0B331B78002B02D0034B31
:100550000022DA63BD4604B080BDC04600000C40F6
:10056000711B00000048E8010024F40080B500AFD2
:1005700001F0CEFB031C181CFFF7BAFFBD4680BD7F
:1005800080B582B000AF7860074B5A6D01231340ED
:1005900000D005E0C046044B1B6D7A681340FAD1C9
:1005A000BD4602B080BDC04600800C4080B584B01E
:1005B00000AF786039607B681A090F231340FB6035
:1005C000FB68072B00D993E0FB689A004A4BD318CD
:1005D0001B689F463B68002B03D03B68082B00D864
:1005E000C046FFF7C3FF454B444A1168444A1140D7
:1005F0003A68013A92030A431A6001F06BFB031C4C
:10060000BB60BB68181CFFF773FF72E03B68002BF0
:1006100005D03A6880239B009A4200D8C0463B68C8
:10062000181CFFF74BFF031C3B60344B334A9268A6
:100630000F21101C8843011C3A680A439A6058E055
:100640003B68002B05D03A6880239B009A4200D873
:10065000C046FFF78BFF3B68181CFFF72FFF031CFA
:100660003B60264B254A52680F21101C8843011C11
:100670003A680A435A6001F02DFB031CBB60BB685B
:10068000181CFFF735FF34E07A681E4B9A4200D001
:1006900013E00420FFF774FF3B68181CFFF70EFF00
:1006A000031C3B60154B154A926E0F21101C8843AA
:1006B000011C3A680A439A66C0461AE07A68124BEF
:1006C0009A4200D013E04020FFF75AFF3B68181C05
:1006D000FFF7F4FE031C3B60084B084A126F03212E
:1006E000101C8843011C3A680A431A67C04600E0A0
:1006F000C046BD4604B080BDC827000000800C4045
:10070000FF3FFEFF600610007007140080B586B042
:1007100000AF78600A1CFB1C1A7000233B617B68E9
:100720001A0A0F2313400A2B36D89A001C4BD318F1
:100730001B689F461B4B7B6118E01B4B7B6115E0E0
:100740001A4B7B6112E01A4B7B6101233B610DE088
:10075000184B7B6110233B6108E0174B7B618023C2
:100760005B003B6102E0154B7B61C0467B681A0B66
:100770001F231340FB603B69002B03D03B69181C0F
:10078000FFF7FEFEFB1C1B787969FA68081C111C38
:100790001A1CFFF765FE00E0C046BD4606B080BDEE
:1007A000E827000040800C4008800C4044800C404A
:1007B00058800C4060800C4064800C4078800C4075
:1007C00080B588B000AF78600A1CFB1C1A70032348
:1007D000FB613B1C1B3303221A7000233B617A68C8
:1007E0000F231340FB60FB68072B00D9F3E0FB6885
:1007F0009A007D4BD3181B689F46FB1C1B780B2B64
:1008000000D9EAE09A00794BD3181B689F4604236D
:10081000FB613B1C1B3300221A701BE00323FB61AE
:100820003B1C1B3301221A7014E00223FB613B1CAA
:100830001B3302221A700DE00123FB613B1C1B33AA
:1008400003221A7006E00523FB613B1C1B330522C3
:100850001A70C0463B1C1B331B78181C0121012257
:1008600000F0D0F8FFF782FE614BFA695A6200F09F
:100870007FFA01F02FFA031CBB60BB68181CFFF75E
:1008800037FEADE0FB1C1B780B2B00D9A7E09A00CC
:10089000584BD3181B689F4600237B611DE0002046
:1008A0000121012200F0AEF802237B6115E0012056
:1008B0000121012200F0A6F801237B610DE04E4BDF
:1008C000181C02210122FFF7CBFD03237B6104E00A
:1008D00000237B6101233B61C046FB68022B0BD1E7
:1008E000434B434A916A454A11407A6911433A6938
:1008F00012040A439A6273E03D4B3D4A916A404AB2
:1009000011407A69920011433A6912050A439A62CA
:1009100066E0FB1C1B78022B07D0032B0DD0012BAC
:1009200000D05DE000237B610FE000200121012267
:1009300000F068F802237B6107E001200121012219
:1009400000F060F801237B61C046294B284A926A77
:100950003021101C8843011C7A6912010A439A62F3
:100960003EE0FB1C1B78032B14D0092B22D0022B5A
:1009700000D035E000200121012200F043F81C4B9B
:1009800040225A62C0461A4BDA6A80235B02134047
:10099000F9D01FE001200121012200F033F8144BAF
:1009A00060225A62C046124BDA6A80239B021340CF
:1009B000F9D00FE005200121012200F023F80C4BB3
:1009C00080225A62C0460A4BDA6A8023DB02134057
:1009D000F9D0C04604E0C04602E0C04600E0C04690
:1009E000BD4608B080BDC046142800003428000071
:1009F00000800C406428000040800C40FCFFFEFF9B
:100A0000F3FFEFFF80B586B000AFFB1D1870BB1D74
:100A100019707B1D1A70FB1D1B78052B4ED89A0090
:100A2000284BD3181B689F4601233B610223FB60C0
:100A300001237B6126E004233B610823FB60032341
:100A40007B611FE010233B612023FB6005237B615A
:100A500018E040233B618023FB6007237B6111E0AA
:100A600080235B003B6180239B00FB6009237B614B
:100A700008E08023DB003B6180231B01FB60162321
:100A80007B61C046BB1D1B78002B11D00E4B3A6911
:100A90001A627B1D1B78002B0DD0C0460B4A7B6968
:100AA000101C191CFFF7FAFC031C002BF6D002E007
:100AB000054BFA681A6200F05BF900E0C046BD46DB
:100AC00006B080BD9428000000800C402C800C40B3
:100AD00090B58BB000AF324A80235B01D358BB6125
:100AE0002F4A304BD258BB691340BB612C4B9B6BD8
:100AF0007B61BB697A6913403B620023FB6148E07C
:100B000000237B623AE03A6A0123134030D0244B41
:100B10009B683B6101227B6A111C99400B1CFB60A6
:100B20001F4A214BF968D1507B6A1B013A69D318DF
:100B3000DB68BB60BB68002B1AD0BB681B7A7B608C
:100B4000BB681B7A01225340DAB2BB681A72BB68D9
:100B50001B68002B0CD0BB681C68796A7B685A1E26
:100B60009341DAB2BB685B68081C111C1A1CA047D1
:100B70003B6A5B083B627B6A01337B623B6A002B0A
:100B8000C1D17B69DB43BA6913403B62FB69013326
:100B9000FB61FB69012BB3DDBD460BB090BDC046C8
:100BA00000200C400C1000000810000080B500AFC1
:100BB00001F090F8BD4680BD80B500AF024A8423A5
:100BC0000021D150BD4680BD00800C4080B500AFF3
:100BD000024A84230249D150BD4680BD00800C40AA
:100BE0000E58000080B582B000AF494A8423D25825
:100BF000012313407B60FFF7E9FF00233B60454B77
:100C00001A68012313403A6813433B60414B1A684A
:100C1000102313403A6813433B603E4B1A6840234D
:100C200013403A6813433B603A4B1A68042313405D
:100C30003A6813433B60374B1A6880235B001340CC
:100C40003A6813433B60334B1A6880239B0313407D
:100C500002D08023DB0000E000233A6813433B60AE
:100C60002B4B3A681A622B4B1A682B4B134080228D
:100C70005201934211D080225201934204D8802223
:100C8000120193421ED032E08022920193420ED094
:100C90008022D20493421FD029E0C0461C4BDA6A5E
:100CA00080231340FAD01A4B03225A621FE0C04639
:100CB000174BDA6A80239B001340F9D0144B0422AF
:100CC0005A6214E0C046124BDA6A08231340FAD085
:100CD0000F4B02225A620AE0C0460D4BDA6A8023AB
:100CE000DB031340F9D00A4B05225A62C046094B78
:100CF0001A680123134002D1054B02221A627B6855
:100D0000002B01D0FFF758FFBD4602B080BDC046A2
:100D100000800C40A0000020003C000480B582B0A0
:100D200000AF021CFB1D1A700E4BDA6A0E4B1A60E4
:100D30000E4B0E4A126904210A431A6130BFFB1D93
:100D40001B78002B02D0FFF74DFF07E0064B1A6817
:100D50008023DB00134001D1FFF728FFBD4602B01E
:100D600080BDC04600800C40A000002000ED00E0E7
:100D700080B500AF024BDA6A024B1A60BD4680BDF7
:100D800000800C40A000002080B586B000AFF86065
:100D9000B9607A60FB681B687B61BB680122101C2C
:100DA0009840031CDB437A691A4079680123194093
:100DB000BB68081C9840031C1A43FB681A60BD46B8
:100DC00006B080BD80B584B000AF78607B68002B32
:100DD00002D0012B04D007E0074B9B68FB6006E0C4
:100DE000054BDB68FB6002E00023FB60C046FB684C
:100DF000181CBD4604B080BD0000084080B584B01A
:100E000000AF786039607B68012B04D83B681B0E0B
:100E10001B0600D1C0467B68002B02D0012B03D0FB
:100E200008E0064BFB6002E0054BFB60C046FB6838
:100E30003A681A60BD4604B080BDC046080008404C
:100E40000C00084080B582B000AF021CFB1D1A7078
:100E5000FB1D1B78044A101C00211A1CFFF794FF8D
:100E6000BD4602B080BDC0460000084080B584B0D9
:100E700000AF78607B681B78002B02D00123FB60F9
:100E800001E00023FB607B685B78002B03D0FB68EC
:100E900002221343FB607B689B78002B03D0FB6826
:100EA00004221343FB60034BFA681A60BD4604B08A
:100EB00080BDC0460000084080B500AF0020FFF7AD
:100EC000C1FF0120FFF7BEFFBD4680BD80B582B0E7
:100ED00000AF7860034A8E235B007968D150BD462D
:100EE00002B080BD0060004080B582B000AF074A0C
:100EF00088235B00D3587B60044A8A235B00D35865
:100F00007A681340181CBD4602B080BD00600040E6
:100F100080B584B000AF78600023FB6005E0FB681B
:100F20000133FB607B685B087B60FB681F2B03D889
:100F30007A6801231340F2D0FB68181CBD4604B048
:100F400080BDC04680B584B000AF78601CE07B688F
:100F5000181CFFF7DDFF031CFB60FB680122111C5E
:100F600099400B1CDB431A1C7B6813407B60094BC8
:100F7000FA689200D358BB60BB68002B04D0FB68B2
:100F8000DAB2BB68101C98477B68002BDFD1BD46E6
:100F900004B080BDA800002080B582B000AFFFF78C
:100FA000A3FF021C064B13407B607B68181CFFF7F5
:100FB0008DFF7B68181CFFF7C5FFBD4602B080BDE2
:100FC0005555000080B582B000AFFFF78DFF021CC1
:100FD000064B13407B607B68181CFFF777FF7B682C
:100FE000181CFFF7AFFFBD4602B080BDAAAA0000E3
:100FF00080B582B000AF021CFB1D1A70064BFA1DB3
:101000001278111C1F220A400121081C9040021C6A
:101010001A60BD4602B080BD00E100E080B582B03C
:1010200000AF021CFB1D1A70064AFB1D1B78191C21
:101030001F230B4001219940C0235B00D150BD46C6
:1010400002B080BD00E100E080B500AF72B6074B92
:101050001B68013304D0054B1B685A1C034B1A60F4
:10106000024B1B68181CBD4680BDC046A400002072
:1010700080B582B000AF0B4B1B68002B0DD0094B25
:101080001B685A1E074B1A60064B1B687B607B6807
:10109000002B00D162B67B6800E00023181CBD461F
:1010A00002B080BDA400002080B500AF024B5B6899
:1010B000181CBD4680BDC0460000084080B582B007
:1010C00000AF7860024B7A689A61BD4602B080BD7D
:1010D0000000084080B582B000AF7860044B044A3D
:1010E000D2697968C9430A40DA61BD4602B080BD61
:1010F0000000084080B582B000AF7860044B044A1D
:10110000D1697A680A43DA61BD4602B080BDC04643
:101110000000084080B500AF024B1B69181CBD469B
:1011200080BDC0460000084080B584B000AF786044
:101130000023FB600023BB60FFF786FF02E0FB6833
:101140000133FB60FB68032B0BDC1748FA6818219E
:10115000131C9B009B18DB00C3185B189B79002BAA
:10116000EDD1FB68042B02D1104BBB6015E07B680E
:10117000002B10D00C48FA681821131C9B009B18F8
:10118000DB00C3185B1801229A71FA687B681A6049
:101190000023BB6001E0064BBB60FFF769FFBB6843
:1011A000181CBD4604B080BDE8000020011000F00E
:1011B000041000F00000000090B585B000AF78602A
:1011C0007868011C0020021C480CD4030443CB03A4
:1011D000184A17495B185441181C211C164A174B12
:1011E00000F090FE031C0C1CBB60FC600BE0164B77
:1011F000181C00F049FCB968FA68114B114C5B18D7
:101200005441BB60FC60FB68002BF0D1FB68002BF5
:1012100003D1BA680C4B9A42E9D8BB68181C00F09D
:1012200033FC0023181CBD4605B090BDC046C04627
:10123000A00F000000000000401F000000000000A0
:10124000650000FFFFFFFFFF9BFFFF00C046C04699
:1012500080B500AF204B1B78002B01D0002338E075
:101260001D4B01221A701D4B181C0121FFF74EFA6D
:101270001B4B181C0221FFF7A3FA1A4B181C08215C
:10128000FFF794F9174B181C0121FFF73FFA164B93
:10129000181CFFF7EBFD0720FFF71CFF0720FFF7E7
:1012A0000DFFFFF709FE0C20FFF7B8FE0C20FFF73B
:1012B0009FFE0E4B181C0021A02201F06FFA0C4B70
:1012C00000221A700B4B00221A700B4B00221A607E
:1012D0000023181CBD4680BD92010020002302009F
:1012E0000200180060061000AC280000E800002092
:1012F00090010020910100208C01002000000000DE
:10130000B0B592B000AFF8617A613B613B1C1B3312
:101310000A1C1A700023FB63FB69032B01D9CE4B17
:101320008EE1FFF791FECD48FA691821131C9B004E
:101330009B18DB00C3185B189B7901225340DBB27A
:10134000002B03D0FFF794FEC54B79E17B69002B9E
:101350000CD13B69002B05D0F969BA6D3B69081CBB
:10136000111C9847FFF784FE002369E1FFF79CFEFC
:10137000031C3B64B948FA691821131C9B009B1895
:10138000DB00C3185B183A691A607B69BB600023F5
:10139000FB60B868430CF968CD031D43BA68D403F9
:1013A000AA4BA94A201C291C80185941031C0C1C5B
:1013B000181C211CA64AA74B00F0A4FD031C0C1C02
:1013C000191C221CA54CF869031C9B001B18DB0090
:1013D000E318083319605A603B1C1B331B78012B40
:1013E00028D17B69FA229200111C59439B48FA6963
:1013F000131C9B009B18DB00C31808335C681B6838
:10140000F4225343CB1A191C944CFA691020131C74
:101410009B009B18DB00E3181B1819608F48FA69C2
:101420001021131C9B009B18DB00C3185B187A2249
:101430005A6018E08949FA69131C9B009B18DB006D
:10144000CB18083319685A6801235B42DC17C918A6
:101450006241824CF869031C9B001B18DB00E318F7
:10146000083319605A607D49FA69131C9B009B1868
:10147000DB00CB18083319685A6801230024C91807
:101480006241764CF869031C9B001B18DB00E318D3
:1014900019605A607148FA691821131C9B009B1847
:1014A000DB00C3185B1801221A716C48FA69182115
:1014B000131C9B009B18DB00C3185B183A1C1B32E3
:1014C0001278DA716548FA692021131C9B009B1879
:1014D000DB00C3185B18BA6D1A60624B1B78002BD7
:1014E00003D0FFF7C5FD0023AAE05F4B1B68013363
:1014F00004D05D4B1B685A1C5B4B1A605B4B1B781E
:1015000001225340DBB2002B34D03B6C1B021A0A81
:10151000574B1A600220FFF7D1FD5049FA69131C9E
:101520009B009B18DB00CB185C681B683B637C63EB
:10153000504BFB62FB6A3B6000237B60396B7A6B2C
:101540003B687C68944202D803D18B4201D90B1CC2
:10155000141CBB623A6CBB6AD3181B021B0A002026
:10156000191CFFF74BFC0220FFF7C4FD3F4B012283
:101570001A7059E03C4B1B68012B55D13748FA696A
:101580001821131C9B009B18DB00C3185B1800225A
:101590001A710220FFF79EFD3B6C1A02344B1B6848
:1015A0001B02D31A1B0A7B647A6C334B9A4201D11B
:1015B00000237B647B6C181C00F0B8F800F080FA04
:1015C000FB6B002B0AD12548FA691821131C9B00DC
:1015D0009B18DB00C3185B1801221A71FB6B0133E7
:1015E000FB633B6C181C00F0A1FAFFF75DFD031CC8
:1015F0003B643B6C1A021E4B1B681B02D31A1B0A6E
:101600007B640020FFF7DEFB031C1A02184B1B68EB
:101610001B02D31A1B0A7B62144B1B78002B03D0CE
:101620007A6C7B6A9A42B4D80F4B1B68002B04D0AB
:101630000D4B1B685A1E0C4B1A60FFF719FD002357
:10164000181CBD4612B0B0BDA00F00000000000085
:10165000401F000000000000021000F0E800002021
:10166000031000F0900100208C0100209101002067
:10167000880100209BFFFF00FFFFFF00C046C0461F
:1016800080B584B000AFFFF7DFFCFFF743FD031C1C
:10169000BB60BA68022313403DD0214B01221A706F
:1016A000FFF702FD031CFB600220FFF713FDFB6840
:1016B0001A021C4B1B681B02D31A1B0A7B607B6837
:1016C000181C00F033F800F0FBF9FB68181C00F060
:1016D0002DFAFFF7E9FC031CFB60FB681A02114BB3
:1016E0001B681B02D31A1B0A7B600020FFF76AFBF2
:1016F000031C1A020B4B1B681B02D31A1B0A3B600C
:10170000094B1B78002B03D07A683B689A42CBD8F0
:10171000034B00221A70FFF7ABFCBD4604B080BD3E
:10172000900100208801002091010020F0B547467B
:1017300080B498B000AF78650023FB6598E1D1488C
:101740008446F86D1824031C9B001B18DB006344BF
:101750001B1900205871CB4B9C46F86D1824031CB4
:101760009B001B18DB0063441B191B79002B00D165
:101770007BE1C44CF86D031C9B001B18DB00E318D5
:101780005C681B68786D011C0020021C944202D822
:1017900026D18B4224D9BB4CF86D031C9B001B182F
:1017A000DB00E3181C685D68BC60FD60786D386024
:1017B00000207860BD68FE683B687C68ED1AA64131
:1017C000BD64FE64AF4CF86D031C9B001B18DB006E
:1017D000E318BB60BC6CFD6CBE683460756044E1AE
:1017E000A8488446F86D1824031C9B001B18DB00D6
:1017F00063441B19DB79002B0CD1A24B9C46F86D7E
:101800001824031C9B001B18DB0063441B190020D9
:10181000187111E19B4CF86D031C9B001B18DB0039
:10182000E31808331C685D68BC60FD60786D38643F
:1018300000207864BD68FE683B6C7C6CED1AA641A4
:10184000BD63FE638F4CF86D031C9B001B18DB000F
:10185000E3185C681B68BD6BFE6BED1866413D6369
:101860007E63884CF86D031C9B001B18DB00E3189B
:101870003C6B7D6B1C605D60824DAC46F86D102446
:10188000031C9B001B18DB0063441B191B68002B07
:1018900069DD7C4EB446F86D1024031C9B001B18B8
:1018A000DB0063441B195C6876488046F86D1023A2
:1018B0009C46031C9B001B18DB00434463441B68CD
:1018C000E418704DA846F86D1026B446031C9B0022
:1018D0001B18DB00434463445C606A488446F86D2F
:1018E0001024031C9B001B18DB0063441B195B685E
:1018F000F32B00D8A0E0634CF86D031C9B001B1871
:10190000DB00E3181C685D68BC62FD6201230024F3
:10191000BD6AFE6AED1866413D627E62594CF86D03
:10192000031C9B001B18DB00E3183C6A7D6A1C60EB
:101930005D60544DAC46F86D1024031C9B001B18D1
:10194000DB0063441B195B681C1CF43C4D4EB04625
:10195000F86D10239C46031C9B001B18DB004344BE
:1019600063445C6068E0474CA446F86D1024031C97
:101970009B001B18DB0063441B195C68414DA846A3
:10198000F86D1026B446031C9B001B18DB00434473
:1019900063441B68E41A3B488046F86D10239C465C
:1019A000031C9B001B18DB00434463445C60354C04
:1019B000A446F86D1024031C9B001B18DB00634435
:1019C0001B195B68F32B37D92E4CF86D031C9B0059
:1019D0001B18DB00E3181D685E68BD61FE61012312
:1019E0005B42DC17BD69FE69ED1866413D617E61B1
:1019F000244CF86D031C9B001B18DB00E3183C69AA
:101A00007D691C605D601F4DAC46F86D1024031CA1
:101A10009B001B18DB0063441B195B681C1CF43C17
:101A2000184EB046F86D10239C46031C9B001B18F3
:101A3000DB00434463445C60124CA446F86D1824F8
:101A4000031C9B001B18DB0063441B191B68002B45
:101A50000BD00C4DAC46F86D1824031C9B001B18D2
:101A6000DB0063441B1901205871FB6D0133FB65DA
:101A7000FB6D032B00DC62E6BD4618B004BC90464B
:101A8000F0BDC046E800002080B584B000AF7860AB
:101A90007B68002B10D0FFF707FB031CFB60FFF7F0
:101AA00003FB031CBB60BB681A02FB681B02D31A52
:101AB0001A0A7B689A42F2D3BD4604B080BDC04684
:101AC000B0B582B000AF00237B6026E016487A688C
:101AD0001821131C9B009B18DB00C3185B185B7953
:101AE000002B17D010487A681821131C9B009B18F4
:101AF000DB00C3185B181C6879680B4D7A682020DE
:101B0000131C9B009B18DB00EB181B181B68081CA0
:101B1000191CA0477B6801337B607B68032BD5DDF4
:101B2000BD4602B0B0BDC046E8000020F0B58BB0A5
:101B300000AF786001235B42DC17BB61FC610023CE
:101B40007B622BE039487A6A1821131C9B009B1892
:101B5000DB00C3185B181B79002B1CD033497A6A51
:101B6000131C9B009B18DB00CB185C681B68FA6990
:101B7000A24205D8FA69A2420DD1BA699A420AD99D
:101B80002A497A6A131C9B009B18DB00CB185C68FF
:101B90001B68BB61FC617B6A01337B627B6A032B40
:101BA000D0DD234B00221A70BB69013302D1FB69DF
:101BB000013338D0BB69FC693B617C611D4BFB6024
:101BC000FB681D1C00231E1C39697A692B1C341C00
:101BD000944202D803D18B4201D90B1C141CBB6167
:101BE000FC61154B1B7801225340DBB2002B05D062
:101BF0007B681B021A0A114B1A6002E00F4B7A68CD
:101C00001A600220FFF75AFABA697B68D3181B02E0
:101C10001B0A0020191CFFF7F1F8054B01221A706E
:101C20000220FFF767FABD460BB0F0BDE8000020C8
:101C3000910100209BFFFF009001002088010020FF
:101C400080B582B000AF786039607B683A689A618D
:101C5000BD4602B080BDC04680B582B000AF78609E
:101C60007B681B69181CBD4602B080BD80B582B080
:101C700000AF0A4B181CFFF7EFFF031C7B607A686C
:101C80001023134007D0054B181C1021FFF7D8FF75
:101C9000034B01221A70BD4602B080BD0000014016
:101CA00093010020064880470649074A074B9B1AC4
:101CB00003DD043BC858D050FBDCFEF71BFA0000E4
:101CC000211E0000C4280000000000207400002035
:101CD000FEE7C04680B582B000AF00F021F8031CDB
:101CE0007B60094B5B681A1C0F2313407A68111C38
:101CF000D9400B1C7B60054B7A681A607B68181C06
:101D0000BD4602B080BDC04600800C40D00100201E
:101D100080B500AF014B181CBD4680BD00366E017A
:101D200080B582B000AF344BDA6A344B1340802266
:101D30005201934215D080225201934204D880224E
:101D40001201934211D017E080229201934204D0F5
:101D50008022D20493420CD00EE0294B1B687B609A
:101D600039E080231B027B6035E0264B1B687B60DB
:101D700031E0254B7B602EE01F4BDA68E023DB006F
:101D8000134080229200934218D080229200934206
:101D900006D8002B18D080225200934211D016E0B2
:101DA000C0229200934206D08022D20093420ED1EC
:101DB000164B7B600EE0164B7B600BE0154B7B6097
:101DC00008E0154B7B6005E0144B7B6002E00023CC
:101DD0007B60C046C046084B1A68E0235B02134094
:101DE0009B0B01337868191C00F01EF8031C181CAB
:101DF000BD4602B080BDC04600800C40003C0004DF
:101E0000040000200000002000366E01406F4001F9
:101E1000809FD500C0D8A70040B56400804F120055
:101E200080B500AFBD4680BD002934D0012300221B
:101E300010B488422CD301242407A14204D2814249
:101E400002D209011B01F8E7E400A14204D2814259
:101E500002D249005B00F8E7884201D3401A1A43D6
:101E60004C08A04202D3001B5C0822438C08A0420D
:101E700002D3001B9C082243CC08A04202D3001BC3
:101E8000DC082243002803D01B0901D00909E3E73D
:101E9000101C10BC7047002801D00020C04307B4BC
:101EA000024802A14018029003BDC046190000007C
:101EB0000029F0D003B5FFF7B9FF0EBC4243891AE1
:101EC0001847C0467047C0461C2101231B04984296
:101ED00001D3000C10391B0A984201D3000A0839BB
:101EE0001B09984201D30009043902A2105C401872
:101EF0007047C04604030202010101010000000016
:101F000000000000002B11D1002A0FD1002900D1C0
:101F1000002802D00021C943081C07B4024802A1CE
:101F20004018029003BDC0469DFFFFFF03B4684602
:101F300001B5029800F044F8019B9E4602B00CBC2B
:101F40007047C0469C460304F0B51B0C17043F0CB9
:101F5000150C1E1C041C000C7E436B434743454379
:101F6000FB18300C1818874202D980235B02ED1849
:101F7000030CED1863465C434A433604360CA11843
:101F8000000480194919F0BDF0B583B0161C1F1C60
:101F90000090019100F02EF8041C0D1C221C2B1C3B
:101FA000301C391CFFF7CEFF009A019B121A8B419F
:101FB0000899201C0A604B60291C03B0F0BDC04684
:101FC000F0B583B0141C1D1C0090019100F0EAF9DB
:101FD000221C2B1C061C0F1CFFF7B4FF009A019B50
:101FE000121A8B410899301C0A604B60391C03B0EF
:101FF000F0BDC046F0B544465F4656464D46F0B487
:102000001C1C85B0002900DAD9E00F1C0021061C39
:102010008A46101C191C002C00DAC7E001960090BB
:1020200089468046002950D1B84262D9FFF74CFF5B
:10203000002809D020234546311C1B1A85408740C3
:10204000D940A8460F4386404246140C13041B0C8B
:10205000211C381C9B46FFF7E7FE5B464343051CEB
:10206000211C381C9946FFF723FF330C0804184342
:10207000814509D940446B1E804500D977E18145EF
:1020800000D874E1023D40444946411A8946081C83
:10209000211CFFF7C9FE5A464243071C211C484633
:1020A0009346FFF705FF36040904360C0E43B3458B
:1020B00007D946447B1EB04502D8023FB34500D83D
:1020C0001F1C2D042F43002403E0B94260D90024D3
:1020D00000275246381C211C002A03D03B1C00213B
:1020E0005842A14105B03CBC90469946A246AB4639
:1020F000F0BD002804D101200021FFF795FE8046A5
:102100004046FFF7E1FE002860D1414644460B04FB
:102110003C1B1B0CA3460D0C00930124291C5846A4
:10212000FFF782FE009F81464743291C5846FFF770
:10213000BFFE330C090419438F4208D94B46414472
:10214000013B884502D88F4200D925E19946C91B39
:102150008B46081C291CFFF767FE009B291C434384
:10216000071C58460093FFF7A3FE3604009D0904A0
:10217000360C0E43B54207D946447B1EB04502D803
:10218000023FB54200D81F1C49460B041F43A0E77D
:10219000081CFFF799FE041E70D1B94503D3009CBB
:1021A000019DAC4293D80024012792E75246D243C6
:1021B000031C0C1C924600215842A1412EE7002727
:1021C00046428F41012149428A4622E720231B1AB9
:1021D0004246351C82403C1CDD40DC4087402B1CC5
:1021E000150C3B43291C8640201C00931704904685
:1021F000FFF71AFE3F0C011C794381468B46201CD9
:10220000291CFFF755FE009C0904230C19438B453C
:102210000CD94B464144013B884500D9BAE08B4577
:1022200000D8B7E002225242914441445C460C1B64
:10223000201C291C0194FFF7F7FD391C4143041CA5
:102240008B460198291CFFF733FE009A09041304FA
:102250001B0C19438B4509D94144631E884500D99D
:1022600094E08B4500D891E0023C41445B46CB1A98
:1022700049469B460B041C4300974FE7009D2023D3
:102280001B1A4A4600998240DD40154381403A1CA2
:10229000DA400091311C9046D9403A1C82400B1C18
:1022A000134301932F0C2B041B0C391C4046029343
:1022B000FFF7BAFD029A81464243391C40469346D5
:1022C000FFF7F6FD019A0904130C19438B450AD94F
:1022D0004B464919013B8D425AD88B4558D90223A8
:1022E0005B42994449195A468A1A101C391C0392B8
:1022F000FFF79AFD029B80464343391C03989B4697
:10230000FFF7D6FD019A090413041B0C19438B45F2
:102310000AD943464919013B8D4235D88B4533D9FB
:1023200002235B42984449195D464D1BAB46494622
:10233000009D0F04424617432A04120C3B042D0C47
:102340001B0C380C111C594342436B436843D31890
:102350000D0C5B198C469A4202D9802252028018D9
:102360001D0C401983450CD303D00024B1E61D1C7D
:102370008AE665462A041B04120C9B18A6409E425E
:10238000F3D2013F0024A4E69846CDE71C1C6DE77C
:102390009946A8E7994649E70222524291444144AE
:1023A000D5E6C046F0B55F4656464D464446F0B4C5
:1023B0000D1C85B0061C924698460290019103922E
:1023C0001F1C141C8346A946002B52D1AA426BD96C
:1023D000101CFFF779FD00280AD020231B1A311C9E
:1023E000D94085400B1C2B43864084409946B34618
:1023F000250C23041B0C291C48469846FFF714FDA6
:102400004646071C4643291C4846FFF751FD5A46DD
:102410000904130C19438E4209D909197B1E8C42F9
:1024200000D959E18E4200D856E1023F0919891BB3
:102430008946081C291CFFF7F7FC43464343061C4A
:10244000291C48469846FFF733FD5A4613040904F1
:102450001B0C1943884508D90919731E8C4200D9F1
:1024600038E1023E884500D834E138043043002783
:1024700012E0019A93420DD8181CFFF725FD041EA7
:1024800066D1019B9F4200D221E1039F02998F42B6
:1024900000D81CE100270020391C05B03CBC904648
:1024A0009946A246AB46F0BD002A04D10120002186
:1024B000FFF7BAFC041C201CFFF706FD002800D023
:1024C000B6E023042D1B1B0CA946260C98460127B9
:1024D000311C4846FFF7A8FC41464143051C8A468B
:1024E0004846311CFFF7E4FC5A460804130C184315
:1024F000824507D900196B1E844202D8824500D953
:102500000DE11D1C5346C31A181C311C9A46FFF7D7
:102510008BFC41464143814688465046311CFFF7BB
:10252000C7FC5A46130409041B0C194388450BD9F0
:102530004B460919013B8C4200D9CFE0884500D8B1
:10254000CCE002235B429944280449460843A3E7B0
:1025500020231B1A424657468240DF40174352460B
:1025600082400192321CDA40291CD9408540131C5C
:102570002B4302933D0C3B041B0C8846081C291C72
:102580009A46FFF751FC534643438146291C404677
:102590009B46FFF78DFC029A0904130C19438B45E7
:1025A00006D94B46C919013B8F4200D8ABE099468A
:1025B0005A468A1A101C291C9346FFF735FC5346CD
:1025C0004343291C804658469A46FFF771FC029AFD
:1025D000090415042D0C29438A4506D94346C91917
:1025E000013B8F4200D886E098465746CF1BBA463B
:1025F0004946019F0804424610433D042D0C030444
:102600003F0C1B0C020C291C594355437B437A4356
:10261000EB180F0CDB198C469D4202D980277F02F4
:10262000D2191D0C5219924562D359D0002733E7B5
:1026300020231B1A311C2F1CD940DF4085400B1C66
:1026400084402B4386400193B3462304260C1B0C85
:10265000381C311C9846FFF7E7FB42464243051CF5
:10266000311C381C9146FFF723FC019F09043B0CE9
:102670001943894507D909196B1E8C424DD88945E4
:102680004BD9023D09194A468A1A101C311C924640
:10269000FFF7CAFB43464343071C311C504699468B
:1026A000FFF706FC019A090413041B0C1943894522
:1026B00007D909197B1E8C422DD889452BD9023F99
:1026C00009194B46CB1A2D0499462F4300E70027E2
:1026D0000120E1E61E1CC8E61F1CA8E6994633E768
:1026E00061460A041B04120C9B18A6409E429DD210
:1026F00001380027D0E68A4500D875E702235B42FF
:102700009844C91971E78B4500D850E702235B4212
:102710009944C9194CE71F1CD3E71D1CB3E7023DC0
:102720000019EFE6084B10B5041C002B02D0002165
:1027300000E000BF054B1868836A002B00D0984763
:10274000201C00F033F8C04600000000B428000050
:1027500070B50E4B0E4D0024ED1AAD101E1CAC4290
:1027600004D0A300F35898470134F8E700F020F8AC
:10277000084B094D0024ED1AAD101E1CAC4204D0CC
:10278000A300F35898470134F8E770BD68000020B3
:1027900068000020680000206C000020031C8218E4
:1027A000934202D019700133FAE77047FEE7C04642
:1027B000F8B5C046F8BC08BC9E467047F8B5C046A0
:1027C000F8BC08BC9E467047F0060000D405000027
:1027D000F0060000F00600000C06000040060000B5
:1027E00088060000BC060000980700003A070000B9
:1027F0004007000034070000980700009807000019
:1028000046070000500700005A0700009807000024
:1028100066070000D6090000FA07000084080000DF
:102820008408000012090000D6090000D609000043
:1028300062090000DA090000DA0900000E08000051
:102840001C0800002A08000038080000DA0900000F
:10285000DA090000DA090000DA0900004608000081
:10286000DA090000DE090000980800009E08000058
:10287000AE080000DE090000DE090000BE0800000E
:10288000DE090000DE090000DE090000DE090000AC
:10289000D0080000600A0000520A0000360A00005A
:1028A000280A0000440A0000720A0000010000002B
:0C28B000430000000800002000000000B1
:0828BC0038D8FF7F0100000085
:1028C40000366E01008000000000000000000000DF
:1028D40000000000000000000000000000000000F4
:1028E4000000000000000000B0280000000000000C
:1028F40000000000000000000000000000000000D4
:1029040000000000000000000000000000000000C3
:1029140000000000000000000000000000000000B3
:102924000000000000000000BD0000009500000051
:04293400000000009F
:0400000300001CA538
:00000001FF
