:1000000000200020895B0000B55B0000B55B0000AC
:10001000B55B0000B55B0000B55B0000B55B0000A0
:10002000B55B0000B55B0000B55B0000B55B000090
:10003000B55B0000B55B0000B55B0000B55B000080
:1000400041500000C9540000A53F0000B55B00000E
:10005000B55B0000B55B0000F5540000B55B000027
:10006000B55B0000B55B0000B55B0000B55B000050
:1000700001560000B55B0000B55B0000B55B0000F9
:10008000B55B0000B55B0000B55B0000152B000000
:10009000B55B000010B5064C2378002B07D1054B4B
:1000A000002B02D0044800E000BF0123237010BDE4
:1000B00078000020000000002462000008B5084B12
:1000C000002B03D00748084900E000BF0748036839
:1000D000002B03D0064B002B00D0984708BDC0462C
:1000E00000000000246200007C000020740000205A
:1000F00000000000164B002B00D1144B9D464022FF
:1001000092029A1A924600218B460F461348144ACF
:10011000121A05F02CFF0F4B002B00D098470E4B06
:10012000002B00D098470020002104000D000D484E
:10013000002802D00C4800E000BF05F0E9FE2000D6
:10014000290000F021FA05F0CDFEC04600000800AD
:1001500000200020000000000000000078000020C7
:1001600034030020000000000000000080B500AF54
:10017000024B181C00F03EFDBD4680BDB05F000084
:1001800080B582B000AF0A1CFB1D011C1970BB1D9D
:100190001A70BB1D1B78052B0CD1104A104B012087
:1001A000111C402200F064FF00206421002204F0B2
:1001B000F9F80FE0FB1D1B78052B04D1BB1D1B7844
:1001C000062B00D006E0BB1D1B78062B02D10020B9
:1001D00004F084F9BD4602B080BDC0469400002002
:1001E000E501000080B584B000AFB9607A603B1CC7
:1001F0000F33021C1A703B1C0F331B785BB2002BB1
:100200000DD1BB68002B0AD0074B181C00F020F85A
:10021000054A064B0120111C402200F029FF002353
:10022000181CBD4604B080BD94000020E50100000C
:1002300080B582B000AF786039607A683B68812011
:10024000111C1A1C002300F0DBFFBD4602B080BD6C
:1002500080B584B000AF78607B68181C00F06AF944
:10026000031CFB60FB68002B02D0012B06D00BE0C7
:1002700000F012F8074B00221A6008E000F04EF878
:10028000044B00221A6002E000F0A2F8C046BD460E
:1002900004B080BD1401002090B589B000AF0023E8
:1002A000FB613B1C1433181C00F076F9FB6900203D
:1002B000191C00F0B9F8031CFB613B1C14331A68CD
:1002C000FB69101C191C00F0E9F8031CFB613B1CC6
:1002D00014335A68FB69101C191C00F0DFF8031C6A
:1002E000FB613B1D0B4A13CA13C312681A603A1D07
:1002F000FB69101C191C102200F0FAF8031CFB61AA
:10030000054AFB69101C191CFFF792FFBD4609B096
:1003100090BDC046CC5F0000D400002090B589B0ED
:1003200000AF0023FB613B1C1433181C00F04EF996
:10033000FB690120191C00F077F8031CFB613B1CD2
:1003400014331B881AB2FB69101C191C00F084F8C6
:10035000031CFB613B1C14335B881AB2FB69101C45
:10036000191C00F079F8031CFB613B1C14339B88BB
:100370001AB2FB69101C191C00F06EF8031CFB611B
:100380003B1C1433DB881AB2FB69101C191C00F0EB
:1003900063F8031CFB613B1D0B4A13CA13C31268AD
:1003A0001A603A1DFB69101C191C102200F0A0F8FD
:1003B000031CFB61054AFB69101C191CFFF738FF81
:1003C000BD4609B090BDC046CC5F0000D4000020FF
:1003D00090B589B000AF3B1D114A13CA13C303CABD
:1003E00003C312781A700023FB6101235A42FB6990
:1003F000101C191C00F018F8031CFB613A1DFB6966
:10040000101C191C142200F073F8031CFB61054A30
:10041000FB69101C191CFFF70BFFBD4609B090BD0E
:10042000DC5F0000D400002080B582B000AF021C69
:100430003960FB1D1A70FB1D1A7806493B68CB1802
:100440001A703B6801333B603B68181CBD4602B024
:1004500080BDC046D400002080B582B000AF021C31
:100460003960BB1D1A80BB1D00229B5E1B129BB214
:10047000DAB209493B68CB181A703B680133BA1DE0
:100480001288D1B2044AD1543B6802333B603B68C6
:10049000181CBD4602B080BDD400002080B582B0DB
:1004A00000AF786039607B681B16DAB20F493B6891
:1004B000CB181A703B6801337A681214D1B20B4A18
:1004C000D1543B6802337A681212D1B2074AD15430
:1004D0003B6803337A68D1B2044AD1543B68043391
:1004E0003B603B68181CBD4602B080BDD4000020B4
:1004F00080B586B000AFF860B9607A6000237B6198
:100500000BE0BA687B69D3187A69F9688A181178A0
:10051000074AD1547B6901337B617A697B689A42CF
:10052000EFDBBA687B68D318181CBD4606B080BDE7
:10053000D400002080B582B000AF78607B681B7863
:10054000181CBD4602B080BD80B582B000AF094B1B
:100550001B687B607B681B0E812B08D8064B074A03
:100560001A60074B064A1168064A0A401A60BD46DF
:1005700002B080BDFC81E00F18600C400500000453
:10058000E4800C40FFFFFFFE80B500AFFFF7DCFF0B
:10059000FFF7ECFDFEE7C04680B584B000AF7860A1
:1005A0003B1C0833074A1A603B1C0833064A5A6052
:1005B0007B683A1C083203CA03C37868BD4604B09E
:1005C00080BDC046AAAAFFFF3412CDAB80B584B06F
:1005D00000AF78603B1C0833012252421A803B1C5A
:1005E000083300225A803B1C08330A4A9A803B1C7D
:1005F0000833094ADA807A683B1C0833111C1A1C3C
:100600000823081C111C1A1C05F0A8FC7868BD46BC
:1006100004B080BDA0F0FFFF3412000080B582B0AE
:1006200000AF021CFB1D1A70064BFA1D1278111C3C
:100630001F220A400121081C9040021C1A60BD467E
:1006400002B080BD00E100E080B582B000AF021CC6
:10065000FB1D1A70064AFB1D1B78191C1F230B403B
:1006600001219940C0235B00D150BD4602B080BD3E
:1006700000E100E080B500AF72B6074B1B680133A4
:1006800004D0054B1B685A1C034B1A60024B1B68B5
:10069000181CBD4680BDC0464402002080B582B013
:1006A00000AF0B4B1B68002B0DD0094B1B685A1E6B
:1006B000074B1A60064B1B687B607B68002B00D1E0
:1006C00062B67B6800E00023181CBD4602B080BD06
:1006D0004402002080B500AF054A0549054BCB58C0
:1006E0000121181C8843011C024BD150BD4680BD1E
:1006F00000400C4008C0030080B500AF044A044924
:10070000044BCB5801211943024BD150BD4680BD4B
:1007100000400C4008C0030080B500AF054A064BFE
:100720000021D150034A044BC0214901D150BD469C
:1007300080BDC04600400C4018C0030080B584B0A6
:1007400000AF78603B1C0F3300221A707A683B1CA4
:100750000C33101C191C00F015F8031C002B0AD1D7
:100760003B1C0C331B881A1C01231A403B1C0F3303
:10077000511E8A411A703B1C0F331B78181CBD4652
:1007800004B080BD80B586B000AF786039603B1C96
:100790001733FF221A707B681B78002B24D07B68EC
:1007A0009B785B01264A9B181B683B613A69C02312
:1007B0001B031340FB60FA68C0231B039A4204D05A
:1007C000FA6880231B039A4232D13A6980239B0343
:1007D00013405A1E9341DBB21A1C3B681A803B1C23
:1007E000173300221A7023E07B689B785B01154A5F
:1007F0009B181B683B613A69C0231B031340FB60D5
:10080000FA68C0231B039A4204D0FA6880231B03B2
:100810009A420DD13A6980239B0313405A1E93419B
:10082000DBB21A1C3B681A803B1C173300221A707B
:100830003B1C17331B785BB2181CBD4606B080BD4D
:1008400000091040000B104080B582B000AF786006
:10085000034A7968034BD150BD4602B080BDC04603
:1008600000400C4014C9030080B582B000AF78602E
:10087000034A7968034BD150BD4602B080BDC046E3
:1008800000400C4014CB030080B582B000AF78600C
:1008900039600B4A7B68802109031943094BD15009
:1008A000074A0749084BC958084B19403B680B4396
:1008B000842109061943044BD150BD4602B080BDC6
:1008C00000400C4010C9030000C90300FFFFFF43B4
:1008D00080B582B000AF786039600B4A7B688021B8
:1008E00009031943094BD150074A0749084BC95816
:1008F000084B19403B680B43842109061943044BFC
:10090000D150BD4602B080BD00400C4010CB03006A
:1009100000CB0300FFFFFF4380B584B000AF7860D9
:100920007B681B69002B04D10123FB600023BB60A3
:1009300010E07B681A697B689B89D3185A1E7B6814
:100940009B89101C191C05F0FBF9031CFB607B68DC
:100950001B69BB607B689B785B0116495B187A68F2
:1009600092785201134952181269D20FD107BA680E
:100970001143FA68D2040A431A617B689B785B01D1
:100980000C4A9B187A6892685A617B689B785B0175
:1009900008495B187A689278520106495218116822
:1009A000054A0A40842109060A431A60BD4604B07C
:1009B00080BDC04600091040FFFFFF4380B584B0F2
:1009C00000AF78607B681B69002B05D10123FB60B9
:1009D0007B689B89BB6012E07B681A697B689B8996
:1009E000D3185A1E7B689B89101C191C05F0A8F9A6
:1009F000031CFB607B689B89FA685343BB607B6880
:100A00009B785B0117495B187A6892785201154907
:100A100052181269520F5107BA681143FA68D2048A
:100A20000A431A617B68BA689A617B689B785B01AC
:100A30000C4A9B187A6892685A617B689B785B01C4
:100A400008495B187A689278520106495218116871
:100A5000054A0A40842109060A431A60BD4604B0CB
:100A600080BDC046000B1040FFFFFF4380B582B041
:100A700000AF78607B689B78002B04D17B68181CE2
:100A800000F008F803E07B68181C00F045F8BD464C
:100A900002B080BD80B584B000AF78607B681B7801
:100AA000002B23D07B681B69002B02D17B680122BD
:100AB0005A707B689B68181CFFF7C6FE7B681B6931
:100AC000FB603B1C0A337A6892891A803B1C0A330C
:100AD0001B88FA68934200D9131C0E4A1168F4224D
:100AE0008A58181C111CFFF7CFFE0FE07B689B682B
:100AF000181CFFF7B9FE7B689B891A1C054B196807
:100B0000F423CB58101C191CFFF7E2FEBD4604B0BD
:100B100080BDC0460000002080B582B000AF786084
:100B20007B681B78002B04D07B68181CFFF7F4FE51
:100B300003E07B68181CFFF741FFBD4602B080BD93
:100B400080B584B000AF021CFB1D1A700023BB608F
:100B5000FB1D1B785BB2002B0BDA1A4B1968FB1DCF
:100B60001A780F231A40D0238A18D3181B79FB60F8
:100B70000AE0144B1968FB1D1A780F231A40E02372
:100B80008A18D3181B79FB60FB68002B0BD00D4B28
:100B90001968FA68131C9B009B18DB003033CB18D4
:100BA0000433BB6008E0FB1D1A780F23134003D108
:100BB000044B1B683433BB60BB68181CBD4604B0D3
:100BC00080BDC0460000002080B500AFFFF752FD99
:100BD00002F008FDFFF762FDBD4680BD80B500AFA5
:100BE000034B1A682023D35C181CBD4680BDC04649
:100BF0000000002080B58EB000AF7860112003F0B7
:100C0000A5FF031C042B03D01120042104F090F84D
:100C1000E34B181C012103F099FEE24B181C022142
:100C200004F086F8E04B181C012103F08FFE03F05E
:100C3000D3FADE4B1B68181C0021F82205F097F947
:100C4000DA4B1B68D94A126804321A60D74B1B680A
:100C50007A6812685A62D54B1B687A6852689A6241
:100C6000D24B1B687A689268DA62D04B1B687A684C
:100C7000127B9A77CD4B1A6820230721D154CB4B96
:100C80001A6821230021D154C84B1A68222300215D
:100C9000D154C64B1B687A6852691A63C34B1B68F0
:100CA00000225A77C14B1B683433BB61BB690022F9
:100CB0001A70BB6900229A60BB6900229A70BB69F6
:100CC0000122DA81BB690022DA70BB6900221A7145
:100CD000BB6900225A717B681B68DB791A1CBB69EF
:100CE0009A81BB699B89202B05D1B04B1A68F423EC
:100CF0000121D1500CE0BB699B89402B05D1AB4B46
:100D00001A68F4230021D15002E004235B42A5E1DC
:100D1000BB6900221A61BB6900225A61BA692023AB
:100D20000021D154BB6900225A62BB699B899B0890
:100D30009BB21A1CBB69DA61BB69DA697B681B6903
:100D40001B7853437B62BB69DB695A1C7B681B6958
:100D50001B785343BB6200237B6300233B62002369
:100D6000FB61924B1B689B6AFB62904B1B689B6A02
:100D70009A78DB781B0213439BB2FA6AD3187B6123
:100D80003B1C333301221A70E3E0FB6A1B78002B13
:100D900002D104235B4261E1FB6A01331B78052B1E
:100DA00000D0B6E07B6B01337B63FB6A3B617F4B1A
:100DB00019687A6B131C9B009B18DB003033CB182F
:100DC0000433BB613B699B78DBB2DB09DAB2BB69F8
:100DD0001A70BB6900229A603B699A78BB69DA7025
:100DE000BB69DA780F231340DAB2BB699A70BB692A
:100DF0009B780122111C99400B1C9AB2BB69DA81C5
:100E00003B69DA7803231340DAB2BB691A713B6994
:100E10001A795B791B0213439AB2BB699A81BB6949
:100E200000221A61BB6900225A61BA69202300219D
:100E3000D154BB6900225A627B681A697B6BD31854
:100E40001B78002B02D104235B4207E1BB691B78AE
:100E5000002B33D03B6A01333B623B1C33331B789E
:100E60003A1C3332591C1170BA695371BB699B89A2
:100E70000333002B00DA03339B101A1C7B681969BB
:100E80007B6BCB181B7853431A1CBB69DA61474B49
:100E90001868BB699B78191C7B6BDAB2D0234118A8
:100EA000CB181A71BB69DB697A6AD3187B62BB699C
:100EB0009B78032B48D904235B42CFE0FB690133C5
:100EC000FB61BB699B890333002B00DA03339B1062
:100ED0005A1C7B6819697B6BCB181B7853431A1C0F
:100EE000BB69DA61314B1868BB699B78191C7B6B55
:100EF000DAB2E0234118CB181A71BB69DB69BA6A10
:100F0000D318BB62BB699B78032B1DD904235B42BA
:100F1000A4E0FB6A01331B78042B15D1FB6AFB604C
:100F2000FB68DB78002B0FD1204B1B68DA7FFB6856
:100F30009B789A4202D004235B428FE01B4B1B68D4
:100F4000DA7F0132D2B2DA77FB6A1B78FA6AD318F9
:100F5000FB62FA6A7B699A4200D216E7BB6A1333D6
:100F6000BB62124B1B689B6A1A79104B1B68DB7FB4
:100F70009A4202D004235B4270E07B6B032B02D0C9
:100F800004235B426AE03B6A032B02D904235B42E1
:100F900064E0FB69032B0BD904235B425EE0C0468F
:100FA0000023020004001C000408220000000020AE
:100FB000FFF760FB2B4B2B4A126C18210A431A6473
:100FC000284ADC230121D150274B181C092103F0AA
:100FD000AFFE244A2349D023CB5801211943D02303
:100FE000D1503B1C0833181C04F0E4F83B1C0833B8
:100FF0009B78052B0ED13B1C08335B78012B09D164
:101000003B1C08331B78002B04D1184BA422920000
:101010001A6003E0154BE92212011A60FFF75AFB30
:10102000BA6A7B6A101C191C02F0EEFA031C002B32
:1010300010D1FFF771FBFFF75FFB1320FFF704FBF5
:101040001320FFF7EBFA002000F096F8FFF726FBDD
:10105000002303E0FFF722FB04235B42181CBD467C
:101060000EB080BD00800C400733200000400C40D3
:1010700080B586B000AFF860B9607A603B60FB680D
:10108000DBB2181CFFF75CFD031C7B617B69002B46
:1010900002D104235B4266E07A68354B9A420ADC4F
:1010A0007B699B897868191C04F098FE031C1A1C44
:1010B000304B9A4202DD04235B4254E0BA680323BA
:1010C000134002D004235B424DE0FFF7D3FA7B6963
:1010D000181CFFF733FB031C002B04D0FFF7DEFACC
:1010E00005235B423FE07A692023D35C002B04D0C8
:1010F000FFF7D4FA02235B4235E07B699B78002B33
:1011000009D0FFF76BFD031C052B04D0FFF7C6FACF
:1011100009235B4227E07B69BA689A607A687B6939
:101120001A617B6900225A617B699B78002B03D18D
:101130007B6900221A7008E07B691B78002B04D0C1
:10114000FFF7ACFA04235B420DE07A692023022109
:10115000D1547B693A685A627B69181CFFF786FC98
:10116000FFF79CFA0023181CBD4606B080BDC046A0
:10117000FFFF0700FF03000080B584B000AF021C32
:10118000FB1D1A701D4B19683B1C0F3320228A5C13
:101190001A70FB1D1B78062B06D1184B1A68391CD8
:1011A0000F3121230978D154144B1A68134B196855
:1011B0002023C95C2223D154104B1A68F91D202327
:1011C0000978D1540D4B1B681B6B5B68002B12D048
:1011D0003A1C0F32FB1D12781B789A420BD0074B3A
:1011E0001B681B6B5B683A1C0F321178FA1D127872
:1011F000081C111C9847BD4604B080BD00000020AB
:1012000080B586B000AFF860B9607A603B60FB687B
:10121000DBB2181CFFF794FC031C7B617B69002B7D
:1012200002D104235B4269E07A68364B9A420ADCB9
:101230007B699B897868191C04F0D0FD031C1A1C7B
:10124000314B9A4202DD04235B4257E0BA68032324
:10125000134002D004235B4250E0FFF70BFA7B6996
:10126000181CFFF76BFA031C002B04D0FFF716FACB
:1012700005235B4242E07A692023D35C002B04D033
:10128000FFF70CFA02235B4238E07B699B78002B66
:1012900009D0FFF7A3FC031C052B04D0FFF7FEF9D0
:1012A00009235B422AE07B69BA689A607A687B69A5
:1012B0001A617B6900225A617B699B78002B03D1FC
:1012C0007B6901221A700BE07B691B780122534075
:1012D000DBB2002B04D0FFF7E1F904235B420DE001
:1012E0007A6920230121D1547B693A685A627B696B
:1012F000181CFFF7BBFBFFF7D1F90023181CBD46F4
:1013000006B080BDFFFF0700FF03000080B584B07A
:1013100000AF78600A1CFB1C1A70FB1C1B78002BAA
:1013200003D07A6820230021D1547B681B78002BDE
:101330002FD07B68DB89FB607B689B785B01304A40
:101340009B181A682F4B1340BB60BA6880231B029E
:10135000134011D1BA682C4B1A407B689B891A4301
:101360007B681B799B041A437B685B799B0513435D
:10137000264A1343BB6004E0BB6880225205134336
:10138000BB607B689B785B011D4A9B18BA681A603A
:101390002BE07B68DB891B04FB607B689B785B012F
:1013A0001B4A9B181A68174B1340BB60BA6880230E
:1013B0001B0213400DD1BA68164B1A407B689B89FB
:1013C0001A437B681B799B041343104A1343BB6089
:1013D00004E0BB68802252051343BB607B689B78A6
:1013E0005B010B4A9B18BA681A600B4A0A490B4BFF
:1013F000C958FB681943094BD150BD4604B080BDA4
:1014000000091040FFFFFFC300F813FC0080001824
:10141000000B104000F8D3FF00400C401CC8030034
:1014200080B584B000AF78607B681B78002B0AD051
:101430007B689B785B010F4A9B1800221A607B68CF
:10144000DB89FB600AE07B689B785B010A4A9B189A
:1014500000221A607B68DB891B04FB60074A07498E
:10146000074BCB58F968C9431940054BD150BD46CD
:1014700004B080BD00091040000B104000400C403B
:101480001CC8030080B586B000AF786039603B1C93
:101490001733FF221A707B681B78002B24D07B68DF
:1014A0009B785B01264A9B181B683B613A69C02305
:1014B0001B031340FB60FA68C0231B039A4204D04D
:1014C000FA6880231B039A4232D13A6980239B0336
:1014D00013405A1E9341DBB21A1C3B681A803B1C16
:1014E000173300221A7023E07B689B785B01154A52
:1014F0009B181B683B613A69C0231B031340FB60C8
:10150000FA68C0231B039A4204D0FA6880231B03A5
:101510009A420DD13A6980239B0313405A1E93418E
:10152000DBB21A1C3B681A803B1C173300221A706E
:101530003B1C17331B785BB2181CBD4606B080BD40
:1015400000091040000B104080B582B000AF021CB3
:10155000FB1D1A70084A0849F2239B02C958074B21
:101560001940FB1D1B781B011943F2239B02D1502C
:10157000BD4602B080BDC04600400C400FF8FFFFE2
:1015800080B586B000AF78603B1C1333FF221A7021
:101590007B681B78002B29D07B689B785B01284AED
:1015A0009B181A68274B13407B617A69C0231B0381
:1015B0001340FB60FA688023DB029A4237D07B69D4
:1015C000002B04DA7B698022D20513437B617B68A0
:1015D0009B785B011A4A9B187A69802189030A4328
:1015E0001A603B1C133300221A7020E07B689B7842
:1015F0005B01154A9B181A68124B13407B617A698C
:10160000C0231B031340FB60FA688023DB029A426D
:101610000DD07B689B785B010B4A9B187A6980210F
:1016200089030A431A603B1C133300221A703B1CC7
:1016300013331B785BB2181CBD4606B080BDC04694
:1016400000091040FFFFFFC3000B104080B586B0BB
:1016500000AF78603B1C1733FF221A707B681B7841
:10166000002B2CD07B689B785B012F4A9B181A6853
:101670002E4B13403B613A69C0231B031340FB60B0
:10168000FA68C0231B039A4204D0FA6880231B0324
:101690009A4240D13B698022520513433B613A692B
:1016A000234B13403B617B689B785B011E4A9B1870
:1016B0003A691A603B1C173300221A702BE07B68D2
:1016C0009B785B011B4A9B181A68184B13403B61BF
:1016D0003A69C0231B031340FB60FA68C0231B0355
:1016E0009A4204D0FA6880231B039A4213D13B69C3
:1016F0008022520513433B613A690D4B13403B6115
:101700007B689B785B010B4A9B183A691A603B1C0B
:10171000173300221A703B1C17331B785BB2181C5E
:10172000BD4606B080BDC04600091040FFFFFFC3A4
:10173000FFFFDFFF000B104080B584B000AF021C3C
:10174000FB1D1A700123FB6012E00C4B1968FA684C
:10175000131C9B009B18DB003033CB181A1DFB1D9C
:101760001B78101C191CFFF7D1FDFB680133FB60CF
:10177000FB68032BE9DDBD4604B080BD00000020FE
:1017800080B584B000AF021CFB1D1A700123FB6002
:1017900016E0114B1968FA68131C9B009B18DB00BC
:1017A0003033CB180433BB60BA682023D35C002BE2
:1017B00003D1BB68181CFFF733FEFB680133FB60E5
:1017C000FB68032BE5DDFB1D1B785BB2181C02F0E8
:1017D000DDFABD4604B080BD0000002080B584B0B5
:1017E00000AF021CFB1D1A700023BB60FB1D1B78A1
:1017F0005BB2002B0BDA1A4B1968FB1D1A780F230A
:101800001A40D0238A18D3181B79FB600AE0144BC6
:101810001968FB1D1A780F231A40E0238A18D31881
:101820001B79FB60FB68002B0BD00D4B1968FA6825
:10183000131C9B009B18DB003033CB180433BB60B8
:1018400008E0FB1D1A780F23134003D1044B1B68DB
:101850003433BB60BB68181CBD4604B080BDC046B5
:101860000000002080B584B000AF78607B681B6802
:10187000BB607B681B6B9B68002B0CD07B681B6B71
:101880009B68BA68101C9847031CFB60FB68033315
:1018900001D0FB6853E001235B42FB60BB681B780F
:1018A0005B069B0FDBB2002B48D1BB685B780B2B30
:1018B00043D89A00244BD3181B689F467B68181C9A
:1018C00000F000FA031CFB6038E07B68181C00F095
:1018D0003DF8031CFB6031E07B68181C00F0E0FB66
:1018E000031CFB602AE07B68181C00F0CFFA031C85
:1018F000FB6023E07B68181C00F0F8F8031CFB6019
:101900001CE07B68181C00F093F8031CFB6015E0DA
:101910007B68181C00F024FB031CFB600EE07B6856
:10192000181C00F07FF9031CFB6007E07B68181CA3
:1019300000F042FC031CFB6000E0C046FB68181C82
:10194000BD4604B080BDC046F460000080B586B0DE
:1019500000AF786001235B427B617B681B683B6161
:101960003B699A79DB791B0213439BB2002B02D0AF
:1019700001235B4258E03B691B78DB06DB0EDBB2E0
:10198000002B02D0022B28D04DE03B691A795B79FD
:101990001B0213439BB2002B1ED13B699A78DB7864
:1019A0001B0213439BB2012B16D17A682023D35C10
:1019B000042B04D07A682023D35C052B0CD17B68E0
:1019C0009B6ADB791A1C2023134005D07B68002218
:1019D0005A7700237B6126E025E03B691A795B7921
:1019E0001B0213439BB2DBB2181CFFF7F7FE031C6C
:1019F000FB60FB68002B16D0FB689B78002B12D095
:101A00003B699A78DB781B0213439BB2002B0AD107
:101A10007A682023D35C052B05D1FB68181CFFF7DF
:101A200015FE031C7B617B69181CBD4606B080BD9A
:101A300080B586B000AF786001235B427B617B6834
:101A40001B683B61284BFB603B691A795B791B0281
:101A500013439BB2002B1DD13B699A79DB791B02A2
:101A600013439BB2012B15D13B699A78DB781B029B
:101A700013439BB2002B0DD13B691B781B06DB0F78
:101A8000DBB2012B06D13B691B78DB06DB0EDBB238
:101A9000002B02D001235B4221E07A682023D35C33
:101AA000042B0CD1FB6800221A70FB680020191C63
:101AB00001220023FFF7A4FB031C7B610EE07A6880
:101AC0002023D35C052B09D17B681C330020191C13
:101AD00001220023FFF794FB031C7B617B69181C28
:101AE000BD4606B080BDC0461002002080B58AB059
:101AF00000AF78603B1C263300221A8000233B6233
:101B000001235B42FB617B681B68BB61BB691B787F
:101B1000DB06DB0EDBB2002B06D1BB691B781B0694
:101B2000DB0FDBB2012B02D001235B4275E0BB6906
:101B30009A78DB781B0213439BB21A1CFF231340D5
:101B40007B61BB699A78DB781B0213439BB21B0A4B
:101B50009BB2022B11D0032B20D0012B34D17B69F7
:101B6000002B00D030E07B685B6A3B627B685B6A7D
:101B70001A783B1C26331A8026E07B69002B00D0A4
:101B800022E07B689B6A3B627B689B6A3A1C263238
:101B90009978DB781B020B43138015E07B689B7FF1
:101BA0001A1C7B699A420EDD7B68DA6A7B699B00AE
:101BB000D3181B683B613B693B623B691A783B1C4D
:101BC00026331A80FFE7C0463B1C26331B88002BB8
:101BD00022D03B1C0E333A1C263212881A803A1C43
:101BE0000C32BB699979DB791B020B4313803B1CD8
:101BF0000C333A1C0E3212881B8898B291B288427C
:101C000000D9131C9BB23A6A0020111C1A1C002335
:101C1000FFF7F6FA031CFB61FB69181CBD460AB00E
:101C200080BDC04680B586B000AF786001235B42BE
:101C30007B617B681B683B61214BFB603B691A79C8
:101C40005B791B0213439AB27B68DB7F9A421DD2F9
:101C50003B699A79DB791B0213439BB2012B15D1A7
:101C60003B699A78DB781B0213439BB2002B0DD1A2
:101C70003B691B781B06DB0FDBB2012B06D13B69EE
:101C80001B78DB06DB0EDBB2012B02D001235B42AB
:101C900011E07A682023D35C052B0BD1FB6800226E
:101CA0001A70FB680020191C01220023FFF7A8FA14
:101CB000031C7B617B69181CBD4606B080BDC04615
:101CC0001002002080B586B000AF786001235B422F
:101CD0007B617B681B683B616B4BFB603B699A785F
:101CE000DB781B0213439BB2002B0ED13B699A7920
:101CF000DB791B0213439BB2022B06D13B691B7895
:101D00001B06DB0FDBB2012B02D001235B42B7E0E5
:101D10003B691B78DB06DB0EDBB2012B52D0022BBA
:101D200000D179E0002B00D0A9E03B691A795B79FA
:101D30001B0213439BB2002B43D17A682023D35C50
:101D4000042B04D07A682023D35C052B39D1FB689F
:101D500000221A807B685B7F002B06D0FB681B8803
:101D6000022213439AB2FB681A807B681B6BDB6804
:101D7000002B0ED07B681B6BDB689847031C002B85
:101D800015D0FB681B88012213439AB2FB681A80A6
:101D90000DE07B689B6ADB791A1C4023134006D058
:101DA000FB681B88012213439AB2FB681A80FB6808
:101DB0000020191C02220023FFF722FA031C7B617A
:101DC0005DE05CE07A682023D35C042B07D13B699B
:101DD0001A795B791B0213439BB2002B0ED07A68F1
:101DE0002023D35C052B16D13B691A795B791B0242
:101DF00013439AB27B68DB7F9A420CD2FB680022C5
:101E00001A80FB680020191C02220023FFF7F8F952
:101E1000031C7B6133E032E03B691A795B791B027A
:101E200013439BB2DBB2181CFFF7D8FC031CBB604A
:101E3000BB68002B22D07A682023D35C042B03D10B
:101E4000BB689B78002B04D07A682023D35C052BD9
:101E500014D1BA68FB68101C191CFFF713FB031C94
:101E60007B617B69002B09D1FB680020191C0222D1
:101E70000023FFF7C5F9031C7B61FFE7C0467B69C0
:101E8000181CBD4606B080BD1002002080B584B08D
:101E900000AF786001235B42FB607B681B68BB601E
:101EA000BB681A795B791B0213439BB2002B16D1D6
:101EB000BB689A79DB791B0213439BB2002B0ED1CE
:101EC000BB689A78DB781B0213439BB27F2B06D842
:101ED000BB681B78DB06DB0EDBB2002B02D00123D4
:101EE0005B4239E07A682023D35C032B17D1BB68AF
:101EF0009A78DB781B0213439BB2002B02D004209C
:101F0000FFF73AF9BB689A78DB781B0213439BB260
:101F1000DBB2181CFFF718FB0023FB601BE07A689C
:101F20002023D35C042B16D1BB689A78DB781B0284
:101F300013439BB2002B02D10320FFF71DF9BB68AE
:101F40009A78DB781B0213439BB2DBB2181CFFF7B5
:101F5000FBFA0023FB60FB68181CBD4604B080BD83
:101F600080B584B000AF786001235B42FB607B6882
:101F70001B68BB60BB681A795B791B0213439BB279
:101F8000002B18D1BB689A79DB791B0213439BB2F3
:101F9000002B10D1BB689A78DB781B0213439BB2ED
:101FA0001B0A9BB2002B06D1BB681B78DB06DB0E3D
:101FB000DBB2002B02D001235B426CE07A68202365
:101FC000D35C042B2FD1BB689A78DB781B021343B8
:101FD0009BB2002B0AD0BB689A78DB781B021343B4
:101FE0009AB27B689B6A5B799A4253D1BB689A78B4
:101FF000DB781B0213439BB2DAB27B681A77BB68AB
:102000009A78DB781B0213439AB27B689B6A5B79F0
:102010009A4205D10120FFF78FFB0520FFF7ACF8AE
:102020000023FB6036E07A682023D35C052B31D196
:10203000BB689A78DB781B0213439BB2002B0AD053
:10204000BB689A78DB781B0213439AB27B689B6A61
:102050005B799A421ED1BB689A78DB781B021343E6
:102060009BB2DAB27B681A77BB689A78DB781B027E
:1020700013439BB2002B08D10420FFF77DF80923FE
:102080005B42181CFFF77CFB02E00020FFF754FBCB
:102090000023FB60FB68181CBD4604B080BDC04631
:1020A00080B586B000AF786001235B427B617B68BE
:1020B0001B683B613B699A79DB791B0213439BB236
:1020C000002B02D001235B4271E03B691B78DB06E9
:1020D000DB0EDBB2002B02D0022B23D066E03B6983
:1020E0001A795B791B0213439BB2002B19D13B6910
:1020F0009A78DB781B0213439BB2012B11D17A68CB
:102100002023D35C052B0CD17B689B6ADB791A1CDE
:102110002023134005D07B6801225A7700237B617E
:1021200044E043E03B691A795B791B0213439BB29D
:10213000DBB2181CFFF752FB031CFB60FB68002B93
:1021400034D0FB689B78002B30D03B699A78DB78E1
:102150001B0213439BB2002B28D17A682023D35C47
:10216000052B23D1FB68181CFFF70AFA031C7B61BF
:10217000FA6820230021D1547B69002B16D1FA681C
:102180002023D35C002B11D0FB685B6A002B0DD0A1
:10219000FB685B6ABB60FB6800225A62FB68596996
:1021A000FB681A6905235842BB6898477B69181C6D
:1021B000BD4606B080BDC04680B584B000AF786033
:1021C00001235B42FB607B681B68BB60BB681A79BC
:1021D0005B791B0213439AB27B68DB7F9A4220D261
:1021E000BB689A79DB791B0213439BB2002B18D191
:1021F000BB689A78DB781B0213439BB2002B10D18B
:102200007A682023D35C052B0BD1BB681B78DB06D7
:10221000DB0EDBB2012B04D10020FFF78DFA002387
:1022200000E0FB68181CBD4604B080BD80B586B0D8
:1022300000AF78603B1C1333FF221A707B681B7859
:10224000002B29D07B689B785B01284A9B181A6871
:10225000274B13407B617A69C0231B031340FB604B
:10226000FA688023DB029A4237D07B69002B04DABC
:102270007B698022D20513437B617B689B785B017D
:102280001A4A9B187A69802189030A431A603B1C09
:10229000133300221A7020E07B689B785B01154A9B
:1022A0009B181A68124B13407B617A69C0231B0389
:1022B0001340FB60FA688023DB029A420DD07B68F2
:1022C0009B785B010B4A9B187A69802189030A433A
:1022D0001A603B1C133300221A703B1C13331B780B
:1022E0005BB2181CBD4606B080BDC0460009104058
:1022F000FFFFFFC3000B104080B582B000AF7860D5
:1023000039600B4A7B68802109031943094BD1507E
:10231000074A0749084BC958084B19403B680B430B
:10232000842109061943044BD150BD4602B080BD3B
:1023300000400C4010C9030000C90300FFFFFF4329
:1023400080B582B000AF786039600B4A7B6880212D
:1023500009031943094BD150074A0749084BC9588B
:10236000084B19403B680B43842109061943044B71
:10237000D150BD4602B080BD00400C4010CB0300E0
:1023800000CB0300FFFFFF4380B582B000AF786051
:102390007A6834230021D1540F4A104B1049D15090
:1023A0007B681A1D7B681A600B4A7B681B68191CC6
:1023B0000C4BD150084A08490B4BC9580B4B1940DC
:1023C0007868F423C3580B43802109061943064B50
:1023D000D150BD4602B080BD00400C4010CB030080
:1023E0001800086014CB030000CB0300FFFFFF437D
:1023F00080B584B000AF021CFB1D1A700023BB60C7
:10240000FB1D1B785BB2002B0BDA1A4B1968FB1D06
:102410001A780F231A40D0238A18D3181B79FB602F
:102420000AE0144B1968FB1D1A780F231A40E023A9
:102430008A18D3181B79FB60FB68002B0BD00D4B5F
:102440001968FA68131C9B009B18DB003033CB180B
:102450000433BB6008E0FB1D1A780F23134003D13F
:10246000044B1B683433BB60BB68181CBD4604B00A
:1024700080BDC0460000002080B584B000AF786009
:102480007B681B78002B17D07B681B69FB603B1CAB
:102490000A337A6892891A803B1C0A331B88FA68CF
:1024A000934200D9131C0B4A1168F4228A58181C55
:1024B000111CFFF721FF0AE07B689B891A1C054B62
:1024C0001968F423CB58101C191CFFF739FFBD46BF
:1024D00004B080BD0000002090B585B000AF7860EA
:1024E0007B683433BB60BA682023D35C042B00D9EB
:1024F00032E19A009A4BD3181B689F46BB680022B2
:102500005A70BB6800221A61964B00221A607B68E1
:10251000181CFFF7A7F9031CFB60FB68013313D1FC
:10252000BB6801221A70BB68181CFFF77FFEBB68EE
:1025300000221A70BB68181CFFF778FE8A4B1B68D4
:10254000181CFFF721FF46E0BA682023D35C022B5A
:1025500004D0BA682023D35C012B03D1BB685A6A2C
:10256000804B1A60BA682023D35C022B33D0BB683F
:102570001B69002B19D0BB681A697B681B689979A5
:10258000DB791B020B439BB29A4224D2BB681A69C7
:10259000BB689B89101C191C03F016FC0B1C002B3C
:1025A00019D1BB6801225A70D6E0704B00221A6024
:1025B000BB685B78002B0ED1BA6820230021D15470
:1025C0000020002100220023FEF71AFEBA68202313
:1025D0000321D154C0E0BFE0BB681B69002B07D0CA
:1025E000BB6800221A70BB68181CFFF745FF41E06A
:1025F0000023FB605B4B1B68002B0CD0594B1C6805
:10260000BB685B690020191C0022A047031CFB600B
:10261000544B00221A60FB68002B17D0BB680122C4
:102620001A70BB68181CFFF701FEBB6800221A7005
:10263000BB68181CFFF7FAFD4B4B1B68181CFFF713
:10264000A3FEBA6820230021D15413E0464B1B6837
:10265000181CFFF799FEBA6820230021D1540020EE
:10266000002100220023FEF7CBFDBA6820230321BE
:10267000D15471E070E0BB681B69002B07D0BB68C8
:1026800001221A70BB68181CFFF7F6FE2CE0BB682D
:102690005B78012B11D1BB685A69344B1A60BA6858
:1026A00020230021D1540020002100220023FEF726
:1026B000A7FDBB6802225A7016E0BB685B78002B4E
:1026C00003D1BB685A69294B1A60BA6820230021DC
:1026D000D1540020002100220023FEF7C9FCBA6873
:1026E00020230421D15437E036E0214A214BD3582E
:1026F000002B04DB1C4B1B68181CFFF745FE194B15
:102700001B68002B07D0174B1C68184B1B68002058
:10271000191C0022A047BA6820230021D154BB68AD
:1027200000221A7018E0104B1B68181CFFF72CFED3
:102730000C4B1B68002B07D00A4B1C680B4B1B680B
:102740000020191C0022A047BA6820230021D15480
:10275000BB6800221A70C046BD4605B090BDC04699
:102760002461000014020020000000201802002054
:1027700000400C4000CB030080B584B000AF021CC9
:10278000FB1D1A70FB1D1B78181CFFF731FE031C84
:10279000FB60FA682023D35C012B04D0FA68202365
:1027A000D35C022B14D1FA6820230021D154FB689A
:1027B0005B6A002B0CD0FB685B6ABB60FB68002285
:1027C0005A62FB685969FB681A69BB680020984720
:1027D000BD4604B080BDC04680B500AF72B6074BA1
:1027E0001B68013304D0054B1B685A1C034B1A604D
:1027F000024B1B68181CBD4680BDC0464402002029
:1028000080B582B000AF0B4B1B68002B0DD0094B7D
:102810001B685A1E074B1A60064B1B687B607B685F
:10282000002B00D162B67B6800E00023181CBD4677
:1028300002B080BD4402002080B582B000AF021C0F
:10284000FB1D1A70084AFB1D1B789B0120211943B0
:10285000064BD150C046044A044BD25820231340A3
:10286000F9D1BD4602B080BD00400C4010C003004D
:1028700080B582B000AF074A074BD3587B60054A4A
:10288000064BD2587B6813407B607B68181CBD46A2
:1028900002B080BD00400C4014C0030018C003000B
:1028A00080B584B000AF78600D4A0E4B0021D15046
:1028B0000B4A0D4B01214942D1500C4BFB607B6808
:1028C0001B6B1B69002B03D0FB6808221343FB60C2
:1028D000034A044BF968D150BD4604B080BDC046E0
:1028E00000400C4018C0030014C0030000380C80E6
:1028F00080B582B000AF78600D4A0D490D4BC958C4
:102900000D4B0B408021490019430A4BD150084A16
:1029100007490A4BC9580A4B19407B680B4384216D
:1029200009061943054BD150BD4602B080BDC046D3
:1029300000400C4004C803007FF8FFFF00CB0300F9
:10294000FFFFFF4380B582B000AF084A084BD35861
:102950007B60064A074BD2587B6813407B607B68DC
:102960001B041B0C181CBD4602B080BD00400C406F
:1029700018C803001CC8030080B582B000AF084A25
:10298000084BD3587B60064A074BD2587B681340EC
:102990007B607B681B0C181CBD4602B080BDC04626
:1029A00000400C4018C803001CC8030080B584B068
:1029B00000AF7860084A094BD358FB607B689B786E
:1029C0005B01074A9B189B68BB60BB68FA681340B1
:1029D000181CBD4604B080BD00400C4010C8030068
:1029E0000009104080B584B000AF78607B689B78A8
:1029F0005B01094A9B189B68FB60084A084BD35847
:102A0000802212021A43FB681340FB60FB68181C0B
:102A1000BD4604B080BDC046000B104000400C40D5
:102A200014C8030080B582B000AF78607A683423A0
:102A30000021D1540F4A104B1049D1507B681A1D08
:102A40007B681A600B4A7B681B68191C0C4BD150C1
:102A5000084A08490B4BC9580B4B19407868F423B6
:102A6000C3580B43802109061943064BD150BD467C
:102A700002B080BD00400C4010CB0300180008607D
:102A800014CB030000CB0300FFFFFF4380B584B0ED
:102A900000AF021CFB1D1A700023BB60FB1D1B78DE
:102AA0005BB2002B0BDA1A4B1968FB1D1A780F2347
:102AB0001A40D0238A18D3181B79FB600AE0144B04
:102AC0001968FB1D1A780F231A40E0238A18D318BF
:102AD0001B79FB60FB68002B0BD00D4B1968FA6863
:102AE000131C9B009B18DB003033CB180433BB60F6
:102AF00008E0FB1D1A780F23134003D1044B1B6819
:102B00003433BB60BB68181CBD4604B080BDC046F2
:102B10000000002080B582B000AFFB1C00221A70BC
:102B2000FFF75AFE464B9B68002B25D0444B1A6892
:102B300080239B0213401FD0414B9A68012313400E
:102B40000AD03F4B01221A613D4B5A6801231340C2
:102B500002D0FB1C01221A70394B9A6802231340E1
:102B60000AD0374B02221A61354B5A6801231340B1
:102B700002D1FB1C01221A70FFF77AFE031C7B6056
:102B80007B68002B02D1FFF73BFE56E07A6880237A
:102B90001B04134005D000F06FF97A68294B1340ED
:102BA0007B607B68002B05DA00F054FA7B685B00E1
:102BB0005B087B607A6880231B01134005D000F01E
:102BC00015FA7A68204B13407B607A68082313401B
:102BD00005D000F06BF97B68082293437B607A682C
:102BE00080239B01134005D000F038F87A68174B1A
:102BF00013407B607A6880235B01134005D000F0AE
:102C00007BF97A68124B13407B607A688023DB0281
:102C1000134005D000F03AF87A680E4B13407B6001
:102C20007A6880231B03134005D000F0D9F87A6836
:102C3000094B13407B60FFF7E3FDBD4602B080BD4A
:102C400000400C40FFFF7FFFFFF7FFFFFFDFFFFFAC
:102C5000FFEFFFFFFFFFFBFFFFFFF7FF80B500AFB8
:102C6000094B1A68F423D358181CFFF741FE064B92
:102C70001A6854230021D154034B1B68181CFFF71A
:102C80000FFEBD4680BDC0460000002080B584B068
:102C900000AFFDF7A3FF031C062B06D14E4B1A68AD
:102CA0002123D35C181CFEF767FAFFF74BFE021CCA
:102CB0003B1C08331A800023FB603B1C0A330122B3
:102CC0001A8081E03B1C08333A1C0A321B881288A8
:102CD00013409BB2002B6DD0FB68DBB280225242C6
:102CE0001343DBB2DBB2181CFFF7D0FE031C7B6082
:102CF0007B68181CFFF75AFE031C3B603A680123EF
:102D0000134057D0FB685B0134495B1801229A607D
:102D1000FB68002B24D17B681A697B689B899A42E7
:102D20000ED97B681A697B689B89D21A7B681A6105
:102D30007B685A697B689B89D2187B685A6109E075
:102D40007B685A697B681B69D2187B685A617B680B
:102D500000221A61204B1B68181CFFF7BDFB29E0FD
:102D60007B681A69FB685B011C495B181B695B0384
:102D70005B0BD21A7B685A617B681A697B685B6956
:102D8000D21A7B681A617B68DB78181CFFF7F4FCA9
:102D90007B689B785B01114A9B189A6880239B0192
:102DA000134007D07B689B785B010C495B1880223D
:102DB00092019A60FB680133FB603A1C0A323B1CAB
:102DC0000A331B88DB181380FB68032B00DC79E7D0
:102DD000BD4604B080BDC046000000200009104080
:102DE00080B584B000AFFDF7F9FE031C062B06D1B9
:102DF000204B1A682123D35C181CFEF7BDF9FFF79E
:102E0000BBFD021C3B1C08331A800023FB603B1CEB
:102E10000A3301221A8026E03B1C08333A1C0A328E
:102E20001B88128813409BB2002B12D0FB68DBB2C8
:102E3000181CFFF72BFE031C7B607B68181CFFF738
:102E4000D1FD031C3B603A687B68101C191C00F024
:102E500017F9FB680133FB603A1C0A323B1C0A334A
:102E60001B88DB181380FB68032BD5DDBD4604B03F
:102E700080BDC0460000002080B500AF094A0A4B63
:102E800080210904D150074B5A680123134003D015
:102E90000320FEF771F902E00020FEF76DF9BD4650
:102EA00080BDC04600400C4014C0030080B500AF98
:102EB0000C4A0D4B0821D1500C4B1B681B6B1B6936
:102EC000002B0CD0094B1B681B6B1B690549084A7A
:102ED0008958084A0A40120A92B2101C9847BD4607
:102EE00080BDC04600400C4014C00300000000201C
:102EF00008C8030000FF3F0080B582B000AF304A31
:102F00002F49304BC958304B19402E4BD15000201F
:102F1000FFF792FC00237B6009E07B685B012B4A92
:102F20009B18012252429A607B6801337B607B6868
:102F3000032BF2DD00237B6009E07B685B01244A00
:102F40009B18012252429A607B6801337B607B6848
:102F5000032BF2DD1A4A1F4B1F49D150184A1F4B51
:102F60002921D150164A1E4B0121D150144A14492F
:102F7000F2239B02C9581B4B1940F2239B02D150EC
:102F8000194B1B68181CFFF74DFD174B1B68181CCD
:102F9000FFF786FC144B1B681B6B1B68002B04D0CF
:102FA000114B1B681B6B1B6898470320FEF7E4F866
:102FB0000B235B42181C00F0E9FEBD4602B080BD49
:102FC00000400C4004C803007EF8FFFF00091040D9
:102FD000000B10401CC803000100010014C80300CE
:102FE00010C803000FF8FFFF0000002090B583B069
:102FF00000AF164A164B80210901D1500A235B42CB
:10300000181C00F0C3FEFDF7E9FD031C002B02D1E4
:103010000220FEF7B1F8FC1DFDF7E0FD031C237054
:10302000FB1D1B78022B0BD0FB1D1B78032B07D03D
:10303000FB1D1B78042B03D0FB1D1B78052B02D135
:103040000620FEF799F8BD4603B090BD00400C4045
:1030500014C0030080B500AF064A074B8021090663
:10306000D150064B1A682123D35C181CFEF784F854
:10307000BD4680BD00400C4014C00300000000208D
:1030800080B586B000AF786039603B689B78002BD4
:1030900000D0CFE07A680123134000D19CE0794A48
:1030A000794B0121D150774A784BD358FB603A686D
:1030B0002023D35C002B5BD17A6880231B02134052
:1030C00004D0704A704B80210902D1503B68181C13
:1030D000FFF788FC031C7B606A4A6C4BD358FB608B
:1030E0007A680823134032D0664A674B0821D150D2
:1030F0007B68082293437B60FA68C023DB0513409A
:103100005B0F7B617B69032B01D102237B61604BE9
:103110001B685F4A11687A690220821AD2008A18F5
:1031200004321A605A4B1B68181CFFF7D5F93A682D
:103130002023D35C032B04D03A682023D35C012BDB
:103140004AD1534B1B68181CFFF76CFC44E03B68EA
:10315000181CFFF747FC031C7B607A6808231340A8
:1031600000D0C1E74A4B1B68181CFFF75BFC33E03B
:103170003A682023D35C022B24D13B681A693B6850
:103180009B899A420ED93B681A693B689B89D21A7F
:103190003B681A613B685A693B689B89D2183B6857
:1031A0005A6109E03B685A693B681B69D2183B6861
:1031B0005A613B6800221A61354B1B68181CFFF7E7
:1031C0008BF909E03A682023D35C042B04D1304BFF
:1031D0001B68181CFFF780F97A682023134003D07E
:1031E000284A294B2021D1507A680823134045D022
:1031F000244A254B0821D150224A244BD258C023BF
:10320000DB0513405B0F3B613B69032B01D10223BC
:103210003B611F4B1B681E4A11683A690220821AE3
:10322000D2008A1804321A60194B1B68181CFFF769
:1032300053F923E07A68012313401FD03B689B7841
:103240005B0114495B1801229A603B689A693B68EC
:103250009B785B010F495B181B695B035B0BD21A00
:103260003B685A613B681A693B685B69D21A3B68E4
:103270001A613B68DB78181CFFF77EFABD4606B082
:1032800080BDC04600400C4008CB030010CB0300BB
:1032900000000020000B104080B582B000AF021C7F
:1032A000FB1D1A70064AFB1D1B78191C1F230B40BF
:1032B00001219940C0235B00D150BD4602B080BDC2
:1032C00000E100E080B500AF72B6074B1B68013328
:1032D00004D0054B1B685A1C034B1A60024B1B6839
:1032E000181CBD4680BDC0464402002080B582B097
:1032F00000AF0B4B1B68002B0DD0094B1B685A1EEF
:10330000074B1A60064B1B687B607B68002B00D163
:1033100062B67B6800E00023181CBD4602B080BD89
:103320004402002080B500AF064A074B1021D1505F
:10333000C046044A044BD25810231340F9D1BD466D
:1033400080BDC04600400C4010C0030080B582B074
:1033500000AF021CFB1D1A70084AFB1D1B789B0165
:1033600020211943064BD150C046044A044BD25881
:1033700020231340F9D1BD4602B080BD00400C406F
:1033800010C0030080B584B000AF78607B681B7804
:10339000002B0AD07B689B785B010F4A9B180022A8
:1033A0001A607B68DB89FB600AE07B689B785B01C5
:1033B0000A4A9B1800221A607B68DB891B04FB60A9
:1033C000074A0749074BCB58F968C9431940054BD1
:1033D000D150BD4604B080BD00091040000B104024
:1033E00000400C401CC8030080B584B000AF78607A
:1033F000084A094BD358FB607B689B785B01074AFE
:103400009B189B68BB60BB68FA681340181CBD46DC
:1034100004B080BD00400C4010C8030000091040FB
:1034200080B584B000AF78607B689B785B01094A07
:103430009B189B68FB60084A084BD35880221202F5
:103440001A43FB681340FB60FB68181CBD4604B0C0
:1034500080BDC046000B104000400C4014C8030063
:1034600080B582B000AF78607B681B78002B11D0EC
:103470007B689B785B011A495B187A6892785201E5
:10348000174952181168174A0A409021C9050A4382
:103490001A6021E07B689B785B01134A9B187A686D
:1034A00092785201104952181168104A0A4080213E
:1034B00009060A431A607B689B785B010A4A9B18DD
:1034C0007A6892785201084952181168054A0A40F0
:1034D0009021C9050A431A60BD4602B080BDC046AE
:1034E00000091040FFFFFF83000B1040FFFFFF4368
:1034F00080B584B000AF021CFB1D1A700023BB60B6
:10350000FB1D1B785BB2002B0BDA1A4B1968FB1DF5
:103510001A780F231A40D0238A18D3181B79FB601E
:103520000AE0144B1968FB1D1A780F231A40E02398
:103530008A18D3181B79FB60FB68002B0BD00D4B4E
:103540001968FA68131C9B009B18DB003033CB18FA
:103550000433BB6008E0FB1D1A780F23134003D12E
:10356000044B1B683433BB60BB68181CBD4604B0F9
:1035700080BDC0460000002080B500AF164A164945
:10358000164BCB580121181C8843011C134BD150FA
:10359000114A1149114BCB580C21181C8843011CAE
:1035A0000E4BD1500C4A0C490D4BCB5801211943FD
:1035B0000B4BD150C046084A094BD2580123134047
:1035C000F9D1012000F088FDC046034A044BD358CE
:1035D000002BFADABD4680BD00400C4000CE03004F
:1035E00010C0030080B500AF044A0449044BC95819
:1035F000044B1940024BD150BD4680BD00400C40E9
:1036000004C803007DF8FFFF80B58CB000AF786080
:103610003960B54B01229A61FFF7AEFFFFF766FEF6
:10362000322000F019FDFFF74DFEAF4AAE49F223FC
:103630009B02CB5803211943F2239B02D150AA4A83
:10364000A949F2239B02CB5804211943F2239B0280
:10365000D150A54AA449F2239B02C958A34B194053
:10366000F2239B02D150A04A9F49A14BCB583E2147
:103670008B43222119439E4BD1509B4A9A499D4B23
:10368000C9589D4B0B40802109021943994BD150D9
:103690007B687B6210233B627A6A3B6A934200D26A
:1036A000131C3A1C2C3213808F4A3B1C2C331B8872
:1036B0009B05990D914BD150914B1B681B6DFB6184
:1036C0001023BB61FA69BB69934200D2131C3A1CF8
:1036D0002A321380844A3B1C2A331B881B04191C82
:1036E0003B1C2C331B889B059B0D1943854BD150EC
:1036F0003B1C2E3301221A7055E03B1C2F33012254
:103700001A7044E03B1C2F331B7880225242134333
:10371000DBB2181CFFF7ECFE031C7B617B69002BFE
:103720002ED07B695B793A1C2E3212789A4227D1CF
:103730003B1C2C33391C2C313A1C2A320988128844
:103740008A181A807B69DB693B611023FB603A6948
:10375000FB68934200D2131C3A1C2A3213807B6907
:103760005B799B00684A9B183A1C2A321288120423
:10377000111C3A1C2C3212885205520D0A431A6051
:103780003B1C2F331A783B1C2F3301321A703B1C21
:103790002F331B78032BB5D93B1C2E331A783B1CD7
:1037A0002E3301321A703B1C2E331B78032BA4D905
:1037B0007A683B68D218C0235B009A4201D9FC2387
:1037C0008DE03B1C2C331A88C0235B009A4201D940
:1037D000FC2384E01020FFF7B9FDFFF7A3FD424A68
:1037E0004A4B0021D150404A494B0021D1503E4A1A
:1037F000484B0021D1503C4A474B0021D1503B1C43
:103800002F3300221A701FE03B1C2F331B785B0103
:10381000424A9B1800221A603B1C2F331B785B0125
:103820003E4A9B1800221A613B1C2F331B785B0118
:103830003A4A9B18012252429A603B1C2F331A7855
:103840003B1C2F3301321A703B1C2F331B78032B88
:10385000DAD93B1C2F3300221A701FE03B1C2F3398
:103860001B785B012E4A9B1800221A603B1C2F33E9
:103870001B785B012A4A9B1800221A613B1C2F33DC
:103880001B785B01264A9B18012252429A603B1C1E
:103890002F331A783B1C2F3301321A703B1C2F3305
:1038A0001B78032BDAD9FDF78FF90F4B0E4A1268FC
:1038B000802189020A431A600B4B03221A610A4BCA
:1038C00003225A61084B5A680123134003D0064B68
:1038D0000122DA6002E0044B0222DA6000235BB2CC
:1038E000181CBD460CB080BD00400C40FFE7FFFF38
:1038F00008C0030004C803007F78FFFF24C0030052
:103900000000002028C003000001104010C8030080
:1039100014C803001CC8030034C803000009104089
:10392000000B104080B586B000AF3B1C0A3300226C
:103930001A803B1C083300221A8001237B6145E07A
:10394000AB4B19687A69131C9B009B18DB00303362
:10395000CB1804337B607A682023D35C002B32D0F1
:103960007B681B78002B17D07B68D9893B1C0A33F6
:103970003A1C0A3212880A431A807B689B785B01E2
:103980009C481B187A68927852019A49521892689A
:1039900042210A439A6016E07B68D9893B1C0833B0
:1039A0003A1C083212880A431A807B689B785B01B4
:1039B000914A9B187A68927852018F48121892683F
:1039C00002210A439A607B6901337B617B69032B87
:1039D000B6DD3B1C0A331B88002B3BD0874A874946
:1039E000874BCB5842211943854BD1503B1C0E339A
:1039F0003A1C0A3212881A8001237B6127E07C4B33
:103A000019687A69131C9B009B18DB003033CB18B4
:103A100004337B607B68DB893A1C0E3212881340CA
:103A20009BB2002B10D07B689B785B0171495B18BF
:103A30007A68927852016F4812181168714A0A40E8
:103A4000802109050A431A607B6901337B617B6928
:103A5000032BD4DD3B1C08331B88002B3ED0674A68
:103A60006649694BC958694B0B408021C90019430D
:103A7000654BD150614A6149654BCB588021194350
:103A8000634BD1505D4A5D495F4BC9585F4B0B405A
:103A90008021890019435C4BD1505E4B3B6102E0B1
:103AA0003B69013B3B61554A5B4BD2588023134035
:103AB00002D13B69002BF3D1504A5049544BCB58AB
:103AC0008021181C8843011C514BD1504B4A4B4953
:103AD000524BCB5802211943504BD1503B1C0A3357
:103AE0001B88002B55D03B1C0E333A1C0A3212881F
:103AF0001A80484B3B6101237B6132E03C4B1968E3
:103B00007A69131C9B009B18DB003033CB180433FD
:103B10007B607B68DB893A1C0E32128813409BB2B3
:103B2000002B1BD07B68181CFFF75EFC021C402397
:103B3000134013D07B689B785B012E495B184022B1
:103B40009A607B68DB899BB2DB439BB23A1C0E32E6
:103B5000128813409AB23B1C0E331A807B690133E2
:103B60007B617B69032BC9DD3B69013B3B613B1CEE
:103B70000E331B88002B02D03B69002BBBD11F4AA0
:103B80001E491F4BCB584021181C8843011C1C4B5D
:103B9000D15001237B6116E0154B19687A69131C1B
:103BA0009B009B18DB003033CB1804337B607A68B2
:103BB0002023D35C002B03D07B68181CFFF750FC3C
:103BC0007B6901337B617B69032BE5DD3B1C0E3395
:103BD0003A1C0A3212881A803B1C0C333A1C0832F9
:103BE00012881A800B4B3B6101237B617BE0C0464E
:103BF0000000002000091040000B104000400C4065
:103C000010C80300FFFFFFC304C803007FF8FFFFD5
:103C100018C00300983A000014C0030014C8030041
:103C2000524B19687A69131C9B009B18DB003033D8
:103C3000CB1804337B607B681B78002B24D07B6817
:103C4000DB893A1C0E32128813409BB2002B1BD02A
:103C50007B68181CFFF7C8FB021C0223134013D01B
:103C60007B689B785B0142495B1802229A607B6803
:103C7000DB899BB2DB439BB23A1C0E3212881340A5
:103C80009AB23B1C0E331A807B681B78012253408A
:103C9000DBB2002B24D07B68DB893A1C0C32128803
:103CA00013409BB2002B1BD07B68181CFFF7B8FB9E
:103CB000021C0223134013D07B689B785B012D4AC2
:103CC0009B1802229A607B68DB899BB2DB439BB224
:103CD0003A1C0C32128813409AB23B1C0C331A80E7
:103CE0007B6901337B617B69032B99DD3B69013B78
:103CF0003B613B1C0E331B88002B04D13B1C0C3357
:103D00001B88002B03D03B69002B00D06CE73B1CC9
:103D10000A331B88002B0CD0174A1749174BCB5876
:103D20000221181C8843011C144BD1501020FFF7AE
:103D30000DFB3B1C08331B88002B14D00E4A0E4988
:103D40000F4BCB580221181C8843011C0C4BD1503F
:103D5000094A09490B4BC9580B4B0B408021C9003C
:103D60001943084BD150BD4606B080BD000000206D
:103D700000091040000B104000400C4010C8030028
:103D800014C8030004C803007FF8FFFF80B586B0A5
:103D900000AF021CFB1D1A70FB1D1B785BB21A1CC6
:103DA0000B3201D0FFF7BEFD01237B6139E0214BCF
:103DB00019687A69131C9B009B18DB003033CB1801
:103DC00004333B613A692023D35C002B26D03A6947
:103DD00020230021D1543B695B6A002B1ED03B6934
:103DE0005B6AFB603B6900225A62124B1A6822230D
:103DF000D35C052B09D10F4B1A682023D35C042B0D
:103E000003D13B69181CFFF7BDFA3B6959693B694F
:103E10001A69FB1D00201856FB6898477B6901331F
:103E20007B617B69032BC2DD1320FFF735FABD46AA
:103E300006B080BD0000002080B582B000AF021C3B
:103E4000FB1D1A70064BFA1D1278111C1F220A4026
:103E50000121081C9040021C1A60BD4602B080BDC2
:103E600000E100E080B582B000AF021CFB1D1A70BB
:103E7000064AFB1D1B78191C1F230B40012199408A
:103E8000C0235B00D150BD4602B080BD00E100E020
:103E900080B500AF72B6074B1B68013304D0054BE9
:103EA0001B685A1C034B1A60024B1B68181CBD464A
:103EB00080BDC0464402002080B582B000AF0B4BED
:103EC0001B68002B0DD0094B1B685A1E074B1A604C
:103ED000064B1B687B607B68002B00D162B67B6859
:103EE00000E00023181CBD4602B080BD4402002043
:103EF00080B582B000AF786039607A683B68033380
:103F00001B01D3185B68181CBD4602B080BDC046BB
:103F100080B584B000AFF860B9607A60FA68BB68B9
:103F200003331B01D3187A685A60BD4604B080BDC4
:103F300080B582B000AF78607B685B6A181CBD46B4
:103F400002B080BD80B582B000AF786039607B6818
:103F50003A689A61BD4602B080BDC04680B582B065
:103F600000AF786039607B68DA683B681A437B6829
:103F7000DA60BD4602B080BD80B582B000AF786027
:103F80007B681B69181CBD4602B080BD80B582B03D
:103F900000AF786039607B683A68DA61BD4602B08C
:103FA00080BDC04680B582B000AF114B181CFFF732
:103FB000E3FF031C7B607A681023134015D00C4B81
:103FC000181C1021FFF7BEFF094B181C0021FFF73A
:103FD0008FFF021C074B1B68D318054A101C0021D9
:103FE0001A1CFFF795FF00F0BFFABD4602B080BD76
:103FF000000001403002002080B584B000AF021CF8
:10400000BB1D1A80BB1D1B88002B1DD0104B181C1C
:10401000FFF78EFF021C3B1C0E331A800C4B181C42
:10402000FFF786FF031C9AB23B1C0C331A803B1C23
:104030000C331B889AB23B1C0E331B88D31A9BB2DD
:10404000BA1D12889A42E9D8BD4604B080BDC04668
:10405000000001400000000090B585B000AF78601E
:104060001B480068011C0020021C7868031C00200B
:10407000041C081C111C1A1C231C01F011FF031C3A
:104080000C1CBB60FC600BE0124B181CFFF7B4FF6C
:10409000B968FA680D4C0C4B5B185441BB60FC606E
:1040A000FB68002BF0D1FB68002B03D1BA68094BE9
:1040B0009A42E9D8BB68FC689BB2181CFFF79CFFCA
:1040C000BD4605B090BDC046E0B1FFFFFFFFFFFF5A
:1040D00030020020204E0000F0B58DB000AF7862B5
:1040E000394B1B68191C00231A1C7B6ABB61002317
:1040F000FB61081C111CBA69FB6901F0D1FE031CAD
:104100000C1CBB62FC62BB6AFA6A134338D17B6A3F
:10411000181C0A2101F014FE031C7B622B4B1B6848
:104120003B6100237B617B6ABB600023FB603869D5
:104130007969BA68FB6801F0B3FE031C0C1CBB6212
:10414000FC62BB6AFA6A13431AD17B6A181C0A2103
:1041500001F0F6FD031C7B621D4B1B683B600023D6
:104160007B607B6A1D1C00231E1C386879682A1C32
:10417000331C01F095FE031C0C1CBB62FC620CE0BE
:104180000BE0144B181CFFF737FFB96AFA6A0D4CA5
:104190000B4B5B185441BB62FC62FB6A002BF0D1F5
:1041A000FB6A002B03D1BA6A0A4B9A42E9D8BB6A70
:1041B000FC6A9BB2181CFFF71FFFBD460DB0F0BD97
:1041C000A015FFFFFFFFFFFF340200203802002090
:1041D0003C02002060EA000080B588B000AF3B1CC4
:1041E0000C3301221A703B1C0C3300225A703B1C0A
:1041F0000C3300229A703B1C0C330022DA703B1CFB
:104200000C3300221A713B1C0C3300225A713B1CE8
:104210000C3300229A713B1C0C330022DA713B1CD8
:104220000C3300221A723B1C0C3300225A723B1CC6
:104230000C3300229A723B1C0C330022DA723B1CB6
:104240000C3300221A733B1C00221A703B1C002204
:104250005A703B1C00229A703B1C0022DA703B1CF7
:1042600000221A713B1C00225A713B1C00229A71D9
:104270003B1C0022DA713B1C00221A723B1C0022FC
:104280005A723B1C00229A72384B181C00F0B8FB83
:10429000031CFB61FB69F533FF33181CFA239900FB
:1042A00001F04EFD031C1A1C314B1A60FB69314AA8
:1042B0009B18181C304901F043FD031C1A1C2F4B9E
:1042C0001A60FB692E4A9B18181C2E4901F038FD14
:1042D000031C1A1C2C4B1A60FB692C4A9B18181CD7
:1042E0002B4901F02DFD031C1A1C2A4B1A603B1CA4
:1042F00002229A71284B181C012100F027FB274A43
:10430000274B101C191CFFF741FE244A3B1C101CB4
:1043100000211A1C01F014F8204A3B1C0C33101C1D
:10432000191C00F08FFF1D4A01235B42101C191C51
:10433000FFF708FE194B181C1021FFF70FFE174B53
:10434000181CFFF7F5FD021C094B1B68D318134A14
:10435000101C00211A1CFFF7DBFD0220FFF782FD75
:104360000220FFF769FDBD4608B080BD4081040012
:104370003002002020A1070040420F00340200203C
:1043800050C30000A08601003802002088130000FE
:10439000102700003C020020000204000000014041
:1043A000FFFF000080B588B000AFF860B9607A60A8
:1043B000FFF76EFD4749FA68082312018A18D318DF
:1043C0001B79002B03D0FB68181C00F087F8BB6832
:1043D000002B04D17B689847FFF76EFD77E03D49DD
:1043E000FA68082312018A18D31801221A71394A6F
:1043F000FB681B01D31808337A681A60354AFB68DA
:104400001B01D318043300221A60334B1B68002BA6
:104410000BD1304BFA681201B968D150FB681A0110
:104420002C4BD2182C4B1A604FE02B4B1B68BB61F6
:10443000294B7B610023FB6144E0BB691A68FB697F
:10444000D218BB689A421DD9BA68FB69D11A214BB0
:10445000FA681201D1501F4AFB681B01D3180433BC
:10446000BA691A60FB681A011A4BD2187B691A6084
:10447000BB691A68174BF9680901CB58D21ABB6996
:104480001A6022E0BB695B68002B10D1BA68FB6937
:10449000D21ABB691B68D11A0E4BFA681201D150AF
:1044A000FB681A010B4BD218BB695A600DE0BB695F
:1044B0001B68FA69D318FB61BB6904337B61BB6974
:1044C0005B68BB61BB69002BB7D1FFF7F5FCBD464C
:1044D00008B080BD1C0200202C02002080B584B0F2
:1044E00000AF7860FFF7D4FC1D4B1B68002B31D068
:1044F0001B4B1B68FB601A4BBB601A497A68082388
:1045000012018A18D31800221A7120E07B681A0160
:10451000144BD218FB689A4213D1FB685B68002BDE
:104520000AD0FB685B68FA68526811680D4A7868BF
:10453000000182588A181A60FB685A68BB681A60C2
:1045400008E0FB680433BB60FB685B68FB60FB68EA
:10455000002BDBD1FFF7B0FCBD4604B080BDC046E8
:104560002C0200201C02002080B582B000AFFFF7B3
:104570008FFC164B1B68002B23D0144B1B681A684A
:10458000013A1A6019E0114B1B681B68002B13D10C
:104590000E4B1B689B687B600C4B1B6800221A73D8
:1045A0000A4B1B685A68094B1A607B68002B02D0C3
:1045B0007B68984701E000E003E0044B1B68002B98
:1045C000E1D1FFF779FCBD4602B080BD2C0200208E
:1045D00080B586B000AFF860B9607A60FB681B6890
:1045E0007B61BB680122101C9840031CDB437A6985
:1045F0001A40796801231940BB68081C9840031CC5
:104600001A43FB681A60BD4606B080BD80B582B013
:1046100000AF786039607B681A683B68DA40012334
:104620001340181CBD4602B080BDC04680B500AF27
:10463000034BDB6C1B0EDBB2181CBD4680BDC046B5
:10464000B081E00F80B582B000AF224B5A69E02301
:10465000DB0013408022920093421ED08022920001
:10466000934206D8002B26D08022520093421FD0BE
:1046700027E0C0229200934204D0E022D20093426D
:104680001CD01EE0FFF7D2FF031C122B02D9124BE5
:104690007B6019E0114B7B6016E0FFF7C7FF031C3E
:1046A000122B02D90E4B7B600EE00E4B7B600BE0B1
:1046B0000D4B7B6008E00D4B7B6005E00C4B7B6095
:1046C00002E000237B60C0467B68181CBD4602B038
:1046D00080BDC04600800C40804F120040420F0059
:1046E00040B56400C0CF6A00C0D8A700809FD50045
:1046F000406F400190B583B000AFFC1C0E4B181CFE
:1047000000F024FA031C2370FB1C1B78072B06D037
:10471000082B09D101F076FA031C7B6007E0FFF754
:1047200091FF031C7B6002E000237B60C0467B6836
:10473000181CBD4603B090BD06000C0080B584B0C7
:1047400000AF7860184BDA6B3B1C0B33511E8A416B
:104750001A70154B154ADA63134B5A680723134036
:10476000FB607A68124B9A4206D87A68114B9A42DB
:1047700002D90123FB6001E00023FB600A4B0A4AD7
:1047800052680721101C8843011CFA680A435A60CA
:104790003B1C0B331B78002B02D0034B0022DA6347
:1047A000BD4604B080BDC04600000C40711B000037
:1047B0000048E8010024F40080B500AF01F01AFAC7
:1047C000031C181CFFF7BAFFBD4680BD80B584B03E
:1047D00000AF78600023BB607B68374A934206D005
:1047E000364A934203D0364A934200D000E0C04696
:1047F0007B68181C00F0AAF9031CFB607B682E4A3A
:1048000093420CD02D4A934210D02D4A934200D0AF
:1048100013E02C4B9A6A03231340FB600DE0294BF5
:104820009A6A0C2313409B08FB6006E0254B9A6AAA
:10483000302313401B09FB60C046FB68012B05D0E9
:1048400014D3022B07D0032B0AD02DE001F05EFA1F
:10485000031CBB602BE001F069FA031CBB6026E07F
:1048600001F0AAF9031C5B08BB6020E00023BB60D9
:104870007A68134B9A4203D07A680F4B9A4212D14E
:10488000104B9A6A79680E4B994201D1102300E0CF
:104890001423111CD9400B1C002B04D001F03EFA4C
:1048A000031CBB6003E002E00023BB60C046BB68A2
:1048B000181CBD4604B080BD03001A0004001C0093
:1048C0000200180000800C4080B582B000AF786014
:1048D000074B5A6D0123134000D005E0C046044B3E
:1048E0001B6D7A681340FAD1BD4602B080BDC04648
:1048F00000800C4090B583B000AFFC1C124B181C1C
:1049000000F024F9031C2370FB1C1B78032B08D038
:10491000082B0BD0022B0ED101F008FA031C7B6090
:104920000CE001F0F3F9031C7B6007E001F06AF989
:10493000031C7B6002E000237B60C0467B68181C80
:10494000BD4603B090BDC0460733200080B586B099
:1049500000AF78600A1CFB1C1A7000233B617B6867
:104960001A0A0F2313400A2B36D89A001C4BD3186F
:104970001B689F461B4B7B6118E01B4B7B6115E05E
:104980001A4B7B6112E01A4B7B6101233B610DE006
:10499000184B7B6110233B6108E0174B7B61802340
:1049A0005B003B6102E0154B7B61C0467B681A0BE4
:1049B0001F231340FB603B69002B03D03B69181C8D
:1049C000FFF782FFFB1C1B787969FA68081C111C31
:1049D0001A1CFFF7FDFD00E0C046BD4606B080BDD5
:1049E0003861000040800C4008800C4044800C403E
:1049F00058800C4060800C4064800C4078800C40F3
:104A000080B584B000AF78607A68F8239B031340C8
:104A1000E0221203934200D17FE0E022120393428E
:104A200013D88022920293423DD080229202934278
:104A300002D8002B23D07AE08022D202934223D0E6
:104A4000C0221203934263D071E0C022520393420A
:104A50002ED0C0225203934208D8802252039342A0
:104A60002DD0A0225203934241D060E0D0225203C5
:104A7000934235D080229203934253D057E001F005
:104A8000C1F8031CFB6055E001F0BCF8031CFB609F
:104A90002B4B9B681A1C0F231340FA68111CD9403A
:104AA0000B1CFB6046E001F087F8031CFB6041E053
:104AB000244B181CFFF78AFE031CFB603AE0214BD5
:104AC000181CFFF783FE031CFB601D4B9B6E1A1C1A
:104AD0000F231340FA68111CD9400B1CFB6029E01E
:104AE000194B181CFFF772FE031CFB6022E0164BEB
:104AF000181CFFF76BFE031CFB60114B1B6F1A1C8D
:104B000003231340FA68111CD9400B1CFB6011E011
:104B1000FFF7F0FD031CFB600CE0FFF793FD031CA7
:104B2000FB6007E0FFF7E6FE031CFB6002E00023EA
:104B3000FB60C046FB68181CBD4604B080BDC04683
:104B400000800C400200180003001A0080B584B0F9
:104B500000AF78603B1C0F3301221A707A680F2374
:104B60001340BB60BB68072B00D9CEE0BB689A003E
:104B70006C4BD3181B689F466B4BDA6A6B4B134028
:104B800080225201934216D080225201934204D8CF
:104B900080221201934213D01CE0802292019342A2
:104BA00004D08022D20493420FD013E03B1C0F3379
:104BB00002221A7013E03B1C0F3303221A700EE01E
:104BC0003B1C0F3304221A7009E03B1C0F330A22EE
:104BD0001A7004E03B1C0F3305221A70C04699E09E
:104BE000514B9A6A03231340022B08D0032B0BD09E
:104BF000012B0ED13B1C0F3303221A7015E03B1C16
:104C00000F3302221A7010E03B1C0F3306221A7079
:104C10000BE0454B9A6A80235B02134004D03B1C97
:104C20000F330B221A7000E0C04673E03E4B9A6AC5
:104C30000C231340082B08D00C2B0BD0042B0ED1C7
:104C40003B1C0F3303221A7015E03B1C0F3302226A
:104C50001A7010E03B1C0F3306221A700BE0324B27
:104C60009A6A80235B03134004D03B1C0F330B2252
:104C70001A7000E0C0464DE02B4B9A6A3023134077
:104C8000102B02D0202B05D009E03B1C0F33032250
:104C90001A7009E03B1C0F3302221A7004E03B1C1F
:104CA0000F3301221A70C04634E03B1C0F33072239
:104CB0001A703B1C0F3307221A702BE01A4BDA6A6A
:104CC000E023DB02134080229202934212D0802222
:104CD000D202934204D080225202934205D00EE0C9
:104CE0003B1C0F3309221A700EE03B1C0F330222CB
:104CF0001A7009E03B1C0F3303221A7004E03B1CBE
:104D00000F3301221A70C04604E03B1C0F3300220F
:104D10001A70C0463B1C0F331B78181CBD4604B0EC
:104D200080BDC0466461000000800C40003C00046F
:104D300080B588B000AF78600A1CFB1C1A70032392
:104D4000FB613B1C1B3303221A7000233B617A6812
:104D50000F231340FB60FB68072B00D9F3E0FB68CF
:104D60009A007D4BD3181B689F46FB1C1B780B2BAE
:104D700000D9EAE09A00794BD3181B689F460423B8
:104D8000FB613B1C1B3300221A701BE00323FB61F9
:104D90003B1C1B3301221A7014E00223FB613B1CF5
:104DA0001B3302221A700DE00123FB613B1C1B33F5
:104DB00003221A7006E00523FB613B1C1B3305220E
:104DC0001A70C0463B1C1B331B78181C01210122A2
:104DD00000F0D0F8FFF7F0FC614BFA695A6200F07E
:104DE0009DF900F0E9FE031CBB60BB68181CFFF7CF
:104DF000A5FCADE0FB1C1B780B2B00D9A7E09A00AB
:104E0000584BD3181B689F4600237B611DE0002090
:104E10000121012200F0AEF802237B6115E00120A0
:104E20000121012200F0A6F801237B610DE04E4B29
:104E3000181C02210122FFF7CBFB03237B6104E056
:104E400000237B6101233B61C046FB68022B0BD131
:104E5000434B434A916A454A11407A6911433A6982
:104E600012040A439A6273E03D4B3D4A916A404AFC
:104E700011407A69920011433A6912050A439A6215
:104E800066E0FB1C1B78022B07D0032B0DD0012BF7
:104E900000D05DE000237B610FE0002001210122B2
:104EA00000F068F802237B6107E001200121012264
:104EB00000F060F801237B61C046294B284A926AC2
:104EC0003021101C8843011C7A6912010A439A623E
:104ED0003EE0FB1C1B78032B14D0092B22D0022BA5
:104EE00000D035E000200121012200F043F81C4BE6
:104EF00040225A62C0461A4BDA6A80235B02134092
:104F0000F9D01FE001200121012200F033F8144BF9
:104F100060225A62C046124BDA6A80239B02134019
:104F2000F9D00FE005200121012200F023F80C4BFD
:104F300080225A62C0460A4BDA6A8023DB021340A1
:104F4000F9D0C04604E0C04602E0C04600E0C046DA
:104F5000BD4608B080BDC04684610000A461000069
:104F600000800C40D461000040800C40FCFFFEFF3C
:104F7000F3FFEFFF80B586B000AFFB1D1870BB1DBF
:104F800019707B1D1A70FB1D1B78052B4ED89A00DB
:104F9000284BD3181B689F4601233B610223FB600B
:104FA00001237B6126E004233B610823FB6003238C
:104FB0007B611FE010233B612023FB6005237B61A5
:104FC00018E040233B618023FB6007237B6111E0F5
:104FD00080235B003B6180239B00FB6009237B6196
:104FE00008E08023DB003B6180231B01FB6016236C
:104FF0007B61C046BB1D1B78002B11D00E4B3A695C
:105000001A627B1D1B78002B0DD0C0460B4A7B69B2
:10501000101C191CFFF7FAFA031C002BF6D002E053
:10502000054BFA681A6200F079F800E0C046BD4608
:1050300006B080BD0462000000800C402C800C4053
:1050400090B58BB000AF324A80235B01D358BB616F
:105050002F4A304BD258BB691340BB612C4B9B6B22
:105060007B61BB697A6913403B620023FB6148E0C6
:1050700000237B623AE03A6A0123134030D0244B8C
:105080009B683B6101227B6A111C99400B1CFB60F1
:105090001F4A214BF968D1507B6A1B013A69D3182A
:1050A000DB68BB60BB68002B1AD0BB681B7A7B60D7
:1050B000BB681B7A01225340DAB2BB681A72BB6824
:1050C0001B68002B0CD0BB681C68796A7B685A1E71
:1050D0009341DAB2BB685B68081C111C1A1CA0471C
:1050E0003B6A5B083B627B6A01337B623B6A002B55
:1050F000C1D17B69DB43BA6913403B62FB69013371
:10510000FB61FB69012BB3DDBD460BB090BDC04612
:1051100000200C400C1000000810000080B500AF0B
:10512000024BDA6A024B1A60BD4680BD00800C401B
:105130004002002080B584B000AF78607B68002B0F
:1051400002D0012B04D007E0074B9B68FB6006E010
:10515000054BDB68FB6002E00023FB60C046FB6898
:10516000181CBD4604B080BD0000084080B584B066
:1051700000AF786039607B68012B04D83B681B0E58
:105180001B0600D1C0467B68002B02D0012B03D048
:1051900008E0064BFB6002E0054BFB60C046FB6885
:1051A0003A681A60BD4604B080BDC0460800084099
:1051B0000C00084080B584B000AF7860204B5B697C
:1051C000DAB20F231340DAB23B1C0F3392001A708D
:1051D0001B4B1A69C02313409B09D9B23B1C0F33E8
:1051E0003A1C0F3212780A431A707B683A1C0F324D
:1051F00012789A70124B1B69DAB23F231340DAB26D
:105200007B685A700E4B9B69DAB23B1C0F330F213F
:105210008A431A700A4BDA69F02313401B09D9B28A
:105220003B1C0F333A1C0F3212780A431A707B680A
:105230003A1C0F3212781A70BD4604B080BDC046C9
:10524000D0FF0FF080B582B000AF786039607A6827
:10525000384B9A4207D07A68374B9A4203D07A6823
:10526000364B9A4200D1C0463B681B78012253401E
:10527000DBB2002B02D07B6802225A607B680022DE
:105280005A623B689B781A063B68DB781B041A431A
:105290003B689B799B021A433B68DB791B021A43EC
:1052A0003B681B7A1A433B685B78002B01D0402394
:1052B00000E000231A433B685B7A002B01D0802377
:1052C00000E000231A433B689B7A002B01D0202387
:1052D00000E000231A433B68DB7A002B01D0102347
:1052E00000E000231A433B681B79002B02D0802387
:1052F0009B0100E000231A433B685B79002B02D03E
:1053000080235B0500E000231A433B681B7B002BD6
:1053100001D0082300E000231A437B681A603B6831
:105320001B78002B02D07B6801225A60BD4602B078
:1053300080BDC0460000014000040140000801405B
:1053400080B584B000AFF860B9607A60FA68284B25
:105350009A4207D0FA68274B9A4203D0FA68264B44
:105360009A4200D1C0467B681B789A067B685B78BE
:105370001B061A437B689B781B041A437B68DB7807
:105380001B031A437B681B799B021A437B685B797A
:105390001B021A437B689B791A437B68DB79002BDD
:1053A00002D080239B0300E000231A437B681B7A12
:1053B000002B02D080235B0300E000231A437B68AC
:1053C0005B7A002B01D0102300E000231A437B6896
:1053D0009B7A002B01D0042300E00023111C194309
:1053E000FB68BA6803321201D150BD4604B080BDDB
:1053F00000000140000401400008014080B582B077
:1054000000AF7860034A8E235B007968D150BD46B7
:1054100002B080BD0060004080B582B000AF074A96
:1054200088235B00D3587B60044A8A235B00D358EF
:105430007A681340181CBD4602B080BD0060004071
:1054400080B584B000AF78600023FB6005E0FB68A6
:105450000133FB607B685B087B60FB681F2B03D814
:105460007A6801231340F2D0FB68181CBD4604B0D3
:1054700080BDC04680B584B000AF78601CE07B681A
:10548000181CFFF7DDFF031CFB60FB680122111CE9
:1054900099400B1CDB431A1C7B6813407B60094B53
:1054A000FA689200D358BB60BB68002B04D0FB683D
:1054B000DAB2BB68101C98477B68002BDFD1BD4671
:1054C00004B080BD4802002080B582B000AFFFF775
:1054D000A3FF021C064B13407B607B68181CFFF780
:1054E0008DFF7B68181CFFF7C5FFBD4602B080BD6D
:1054F0005555000080B582B000AFFFF78DFF021C4C
:10550000064B13407B607B68181CFFF777FF7B68B6
:10551000181CFFF7AFFFBD4602B080BDAAAA00006D
:1055200080B500AF72B6074B1B68013304D0054B42
:105530001B685A1C034B1A60024B1B68181CBD46A3
:1055400080BDC0464402002080B582B000AF0B4B46
:105550001B68002B0DD0094B1B685A1E074B1A60A5
:10556000064B1B687B607B68002B00D162B67B68B2
:1055700000E00023181CBD4602B080BD440200209C
:1055800080B500AF024B5B68181CBD4680BDC046AD
:105590000000084080B582B000AF7860024B7A68A6
:1055A0009A61BD4602B080BD0000084080B582B05F
:1055B00000AF7860044B044AD2697968C9430A4055
:1055C000DA61BD4602B080BD0000084080B582B0FF
:1055D00000AF7860044B044AD1697A680A43DA6103
:1055E000BD4602B080BDC0460000084080B500AF97
:1055F000024B1B69181CBD4680BDC0460000084018
:1056000080B584B000AFFFF78BFFFFF7EFFF031CFF
:10561000BB60BA68022313403DD0214B01221A70AF
:10562000FFF7AEFF031CFB600220FFF7BFFFFB6824
:105630001A021C4B1B681B02D31A1B0A7B607B6877
:10564000181C00F033F800F0DFF9FB68181C00F0BC
:1056500011FAFFF795FF031CFB60FB681A02114B60
:105660001B681B02D31A1B0A7B600020FFF762FD38
:10567000031C1A020B4B1B681B02D31A1B0A3B604C
:10568000094B1B78002B03D07A683B689A42CBD831
:10569000034B00221A70FFF757FFBD4604B080BDD0
:1056A0002C030020280300202D030020F0B54746DE
:1056B00080B498B000AF78650023FB6598E1D148CD
:1056C0008446F86D1824031C9B001B18DB00634400
:1056D0001B1900205871CB4B9C46F86D1824031CF5
:1056E0009B001B18DB0063441B191B79002B00D1A6
:1056F0007BE1C44CF86D031C9B001B18DB00E31816
:105700005C681B68786D011C0020021C944202D862
:1057100026D18B4224D9BB4CF86D031C9B001B186F
:10572000DB00E3181C685D68BC60FD60786D386064
:1057300000207860BD68FE683B687C68ED1AA64171
:10574000BD64FE64AF4CF86D031C9B001B18DB00AE
:10575000E318BB60BC6CFD6CBE683460756044E1EE
:10576000A8488446F86D1824031C9B001B18DB0016
:1057700063441B19DB79002B0CD1A24B9C46F86DBE
:105780001824031C9B001B18DB0063441B1900201A
:10579000187111E19B4CF86D031C9B001B18DB007A
:1057A000E31808331C685D68BC60FD60786D386480
:1057B00000207864BD68FE683B6C7C6CED1AA641E5
:1057C000BD63FE638F4CF86D031C9B001B18DB0050
:1057D000E3185C681B68BD6BFE6BED1866413D63AA
:1057E0007E63884CF86D031C9B001B18DB00E318DC
:1057F0003C6B7D6B1C605D60824DAC46F86D102487
:10580000031C9B001B18DB0063441B191B68002B47
:1058100069DD7C4EB446F86D1024031C9B001B18F8
:10582000DB0063441B195C6876488046F86D1023E2
:105830009C46031C9B001B18DB00434463441B680D
:10584000E418704DA846F86D1026B446031C9B0062
:105850001B18DB00434463445C606A488446F86D6F
:105860001024031C9B001B18DB0063441B195B689E
:10587000F32B00D8A0E0634CF86D031C9B001B18B1
:10588000DB00E3181C685D68BC62FD620123002434
:10589000BD6AFE6AED1866413D627E62594CF86D44
:1058A000031C9B001B18DB00E3183C6A7D6A1C602C
:1058B0005D60544DAC46F86D1024031C9B001B1812
:1058C000DB0063441B195B681C1CF43C4D4EB04666
:1058D000F86D10239C46031C9B001B18DB004344FF
:1058E00063445C6068E0474CA446F86D1024031CD8
:1058F0009B001B18DB0063441B195C68414DA846E4
:10590000F86D1026B446031C9B001B18DB004344B3
:1059100063441B68E41A3B488046F86D10239C469C
:10592000031C9B001B18DB00434463445C60354C44
:10593000A446F86D1024031C9B001B18DB00634475
:105940001B195B68F32B37D92E4CF86D031C9B0099
:105950001B18DB00E3181D685E68BD61FE61012352
:105960005B42DC17BD69FE69ED1866413D617E61F1
:10597000244CF86D031C9B001B18DB00E3183C69EA
:105980007D691C605D601F4DAC46F86D1024031CE2
:105990009B001B18DB0063441B195B681C1CF43C58
:1059A000184EB046F86D10239C46031C9B001B1834
:1059B000DB00434463445C60124CA446F86D182439
:1059C000031C9B001B18DB0063441B191B68002B86
:1059D0000BD00C4DAC46F86D1824031C9B001B1813
:1059E000DB0063441B1901205871FB6D0133FB651B
:1059F000FB6D032B00DC62E6BD4618B004BC90468C
:105A0000F0BDC04688020020B0B582B000AF0023D0
:105A10007B6026E016487A681821131C9B009B18AF
:105A2000DB00C3185B185B79002B17D010487A682D
:105A30001821131C9B009B18DB00C3185B181C6803
:105A400079680B4D7A682020131C9B009B18DB00A3
:105A5000EB181B181B68081C191CA0477B68013336
:105A60007B607B68032BD5DDBD4602B0B0BDC04670
:105A700088020020F0B58BB000AF786001235B4254
:105A8000DC17BB61FC6100237B622BE039487A6A3A
:105A90001821131C9B009B18DB00C3185B181B7993
:105AA000002B1CD033497A6A131C9B009B18DB0027
:105AB000CB185C681B68FA69A24205D8FA69A24251
:105AC0000DD1BA699A420AD92A497A6A131C9B00F5
:105AD0009B18DB00CB185C681B68BB61FC617B6AB0
