:10000000002000201539000041390000413900006E
:1000100041390000413900004139000041390000F8
:1000200041390000413900004139000041390000E8
:1000300041390000413900004139000041390000D8
:100040005131000041390000953000004139000075
:1000500041390000413900004139000041390000B8
:1000600041390000413900004139000041390000A8
:100070008D33000041390000413900004139000052
:100080004139000041390000413900006121000080
:100090004139000010B5064C2378002B07D1054BE1
:1000A000002B02D0044800E000BF0123237010BDE4
:1000B00070000020000000009C3B000008B5084BC9
:1000C000002B03D00748084900E000BF0748036839
:1000D000002B03D0064B002B00D0984708BDC0462C
:1000E000000000009C3B0000740000206C00002019
:1000F00000000000164B002B00D1144B9D464022FF
:1001000092029A1A924600218B460F461348144ACF
:10011000121A03F007FD0F4B002B00D098470E4B2F
:10012000002B00D098470020002104000D000D484E
:10013000002802D00C4800E000BF03F0CDFC2000F6
:10014000290000F033F803F0B1FCC04600000800BD
:1001500000200020000000000000000070000020CF
:1001600048020020000000000000000080B582B0BE
:1001700000AF094B1B687B607B681B0E812B08D886
:10018000064B074A1A60074B064A1168064A0A409E
:100190001A60BD4602B080BDFC81E00F18600C40C3
:1001A00005000004E4800C40FFFFFFFE80B500AFB7
:1001B000FFF7DCFFFEE7C04680B500AF72B6074B25
:1001C0001B68013304D0054B1B685A1C034B1A6093
:1001D000024B1B68181CBD4680BDC046980100201C
:1001E00080B582B000AF0B4B1B68002B0DD0094BC4
:1001F0001B685A1E074B1A60064B1B687B607B68A6
:10020000002B00D162B67B6800E00023181CBD46BD
:1002100002B080BD9801002080B584B000AF786046
:100220003B1C0F3300221A707A683B1C0C33101CE5
:10023000191C00F015F8031C002B0AD13B1C0C33D1
:100240001B881A1C01231A403B1C0F33511E8A4184
:100250001A703B1C0F331B78181CBD4604B080BDC0
:1002600080B586B000AF786039603B1C1733FF2241
:100270001A707B681B78002B24D07B689B785B010D
:10028000264A9B181B683B613A69C0231B03134035
:10029000FB60FA68C0231B039A4204D0FA688023EB
:1002A0001B039A4232D13A6980239B0313405A1EA2
:1002B0009341DBB21A1C3B681A803B1C17330022A7
:1002C0001A7023E07B689B785B01154A9B181B68BA
:1002D0003B613A69C0231B031340FB60FA68C023EB
:1002E0001B039A4204D0FA6880231B039A420DD163
:1002F0003A6980239B0313405A1E9341DBB21A1CB8
:100300003B681A803B1C173300221A703B1C1733C2
:100310001B785BB2181CBD4606B080BD00091040BA
:10032000000B104080B582B000AF7860034A796856
:10033000034BD150BD4602B080BDC04600400C40CA
:1003400014C9030080B582B000AF7860034A7968B1
:10035000034BD150BD4602B080BDC04600400C40AA
:1003600014CB030080B582B000AF786039600B4ACF
:100370007B68802109031943094BD150074A07497B
:10038000084BC958084B19403B680B4384210906A8
:100390001943044BD150BD4602B080BD00400C4013
:1003A00010C9030000C90300FFFFFF4380B582B0FE
:1003B00000AF786039600B4A7B68802109031943DC
:1003C000094BD150074A0749084BC958084B1940F7
:1003D0003B680B43842109061943044BD150BD46A9
:1003E00002B080BD00400C4010CB030000CB0300E6
:1003F000FFFFFF4380B584B000AF78607B681B6966
:10040000002B04D10123FB600023BB6010E07B685C
:100410001A697B689B89D3185A1E7B689B89101CBC
:10042000191C03F093FA031CFB607B681B69BB601B
:100430007B689B785B0116495B187A689278520159
:10044000134952181269D20FD107BA681143FA68DA
:10045000D2040A431A617B689B785B010C4A9B18A3
:100460007A6892685A617B689B785B0108495B18DF
:100470007A6892785201064952181168054A0A4072
:10048000842109060A431A60BD4604B080BDC046F7
:1004900000091040FFFFFF4380B584B000AF7860D3
:1004A0007B681B69002B05D10123FB607B689B895E
:1004B000BB6012E07B681A697B689B89D3185A1E5F
:1004C0007B689B89101C191C03F040FA031CFB601D
:1004D0007B689B89FA685343BB607B689B785B01B0
:1004E00017495B187A6892785201154952181269B7
:1004F000520F5107BA681143FA68D2040A431A61CD
:100500007B68BA689A617B689B785B010C4A9B1890
:100510007A6892685A617B689B785B0108495B182E
:100520007A6892785201064952181168054A0A40C1
:10053000842109060A431A60BD4604B080BDC04646
:10054000000B1040FFFFFF4380B582B000AF786022
:100550007B689B78002B04D17B68181C00F008F89E
:1005600003E07B68181C00F045F8BD4602B080BD72
:1005700080B584B000AF78607B681B78002B23D0F7
:100580007B681B69002B02D17B6801225A707B6853
:100590009B68181CFFF7C6FE7B681B69FB603B1C51
:1005A0000A337A6892891A803B1C0A331B88FA68DE
:1005B000934200D9131C0E4A1168F4228A58181C61
:1005C000111CFFF7CFFE0FE07B689B68181CFFF73C
:1005D000B9FE7B689B891A1C054B1968F423CB581C
:1005E000101C191CFFF7E2FEBD4604B080BDC046DA
:1005F0000000002080B582B000AF78607B681B7877
:10060000002B04D07B68181CFFF7F4FE03E07B6826
:10061000181CFFF741FFBD4602B080BD80B584B015
:1006200000AF021CFB1D1A700023BB60FB1D1B7872
:100630005BB2002B0BDA1A4B1968FB1D1A780F23DB
:100640001A40D0238A18D3181B79FB600AE0144B98
:100650001968FB1D1A780F231A40E0238A18D31853
:100660001B79FB60FB68002B0BD00D4B1968FA68F7
:10067000131C9B009B18DB003033CB180433BB608A
:1006800008E0FB1D1A780F23134003D1044B1B68AD
:100690003433BB60BB68181CBD4604B080BDC04687
:1006A0000000002080B500AF034B1A682023D35C04
:1006B000181CBD4680BDC0460000002080B586B035
:1006C00000AFF860B9607A603B60FB68DBB2181C71
:1006D000FFF7A4FF031C7B617B69002B02D104237D
:1006E0005B4266E07A68354B9A420ADC7B699B89FB
:1006F0007868191C03F078F9031C1A1C304B9A42D5
:1007000002DD04235B4254E0BA680323134002D0A5
:1007100004235B424DE0FFF74FFD7B69181CFFF798
:100720007BFD031C002B04D0FFF75AFD05235B4221
:100730003FE07A692023D35C002B04D0FFF750FD03
:1007400002235B4235E07B699B78002B09D0FFF7E1
:10075000A9FF031C052B04D0FFF742FD09235B42D0
:1007600027E07B69BA689A607A687B691A617B695D
:1007700000225A617B699B78002B03D17B690022A0
:100780001A7008E07B691B78002B04D0FFF728FD66
:1007900004235B420DE07A6920230221D1547B6956
:1007A0003A685A627B69181CFFF7CEFEFFF718FD06
:1007B0000023181CBD4606B080BDC046FFFF0700E1
:1007C000FF03000080B584B000AF021CFB1D1A704F
:1007D0001D4B19683B1C0F3320228A5C1A70FB1DCD
:1007E0001B78062B06D1184B1A68391C0F312123B0
:1007F0000978D154144B1A68134B19682023C95C2B
:100800002223D154104B1A68F91D20230978D154A2
:100810000D4B1B681B6B5B68002B12D03A1C0F3210
:10082000FB1D12781B789A420BD0074B1B681B6B81
:100830005B683A1C0F321178FA1D1278081C111CE3
:100840009847BD4604B080BD0000002080B586B04A
:1008500000AFF860B9607A603B60FB68DBB2181CDF
:10086000FFF7DCFE031C7B617B69002B02D10423B4
:100870005B4269E07A68364B9A420ADC7B699B8965
:100880007868191C03F0B0F8031C1A1C314B9A420B
:1008900002DD04235B4257E0BA680323134002D011
:1008A00004235B4250E0FFF787FC7B69181CFFF7CD
:1008B000B3FC031C002B04D0FFF792FC05235B4222
:1008C00042E07A692023D35C002B04D0FFF788FC38
:1008D00002235B4238E07B699B78002B09D0FFF74D
:1008E000E1FE031C052B04D0FFF77AFC09235B42D1
:1008F0002AE07B69BA689A607A687B691A617B69C9
:1009000000225A617B699B78002B03D17B6901220D
:100910001A700BE07B691B7801225340DBB2002B7D
:1009200004D0FFF75DFC04235B420DE07A692023CD
:100930000121D1547B693A685A627B69181CFFF720
:1009400003FEFFF74DFC0023181CBD4606B080BD1A
:10095000FFFF0700FF03000080B584B000AF7860A0
:100960000A1CFB1C1A70FB1C1B78002B03D07A6836
:1009700020230021D1547B681B78002B2FD07B686B
:10098000DB89FB607B689B785B01304A9B181A68A7
:100990002F4B1340BB60BA6880231B02134011D158
:1009A000BA682C4B1A407B689B891A437B681B7979
:1009B0009B041A437B685B799B051343264A1343C8
:1009C000BB6004E0BB68802252051343BB607B68B8
:1009D0009B785B011D4A9B18BA681A602BE07B6804
:1009E000DB891B04FB607B689B785B011B4A9B18BF
:1009F0001A68174B1340BB60BA6880231B02134070
:100A00000DD1BA68164B1A407B689B891A437B68E4
:100A10001B799B041343104A1343BB6004E0BB687B
:100A2000802252051343BB607B689B785B010B4AB5
:100A30009B18BA681A600B4A0A490B4BC958FB68E5
:100A40001943094BD150BD4604B080BD0009104088
:100A5000FFFFFFC300F813FC00800018000B1040DC
:100A600000F8D3FF00400C401CC8030080B584B0E0
:100A700000AF78607B681B78002B0AD07B689B787E
:100A80005B010F4A9B1800221A607B68DB89FB60C0
:100A90000AE07B689B785B010A4A9B1800221A6077
:100AA0007B68DB891B04FB60074A0749074BCB586F
:100AB000F968C9431940054BD150BD4604B080BD0B
:100AC00000091040000B104000400C401CC80300FF
:100AD00080B586B000AF786039603B1C1733FF22C9
:100AE0001A707B681B78002B24D07B689B785B0195
:100AF000264A9B181B683B613A69C0231B031340BD
:100B0000FB60FA68C0231B039A4204D0FA68802372
:100B10001B039A4232D13A6980239B0313405A1E29
:100B20009341DBB21A1C3B681A803B1C173300222E
:100B30001A7023E07B689B785B01154A9B181B6841
:100B40003B613A69C0231B031340FB60FA68C02372
:100B50001B039A4204D0FA6880231B039A420DD1EA
:100B60003A6980239B0313405A1E9341DBB21A1C3F
:100B70003B681A803B1C173300221A703B1C17334A
:100B80001B785BB2181CBD4606B080BD0009104042
:100B9000000B104080B582B000AF021CFB1D1A7024
:100BA000084A0849F2239B02C958074B1940FB1D0C
:100BB0001B781B011943F2239B02D150BD4602B0A2
:100BC00080BDC04600400C400FF8FFFF80B586B0E6
:100BD00000AF78603B1C1333FF221A707B681B78D0
:100BE000002B29D07B689B785B01284A9B181A68E8
:100BF000274B13407B617A69C0231B031340FB60C2
:100C0000FA688023DB029A4237D07B69002B04DA32
:100C10007B698022D20513437B617B689B785B01F3
:100C20001A4A9B187A69802189030A431A603B1C7F
:100C3000133300221A7020E07B689B785B01154A11
:100C40009B181A68124B13407B617A69C0231B03FF
:100C50001340FB60FA688023DB029A420DD07B6868
:100C60009B785B010B4A9B187A69802189030A43B0
:100C70001A603B1C133300221A703B1C13331B7881
:100C80005BB2181CBD4606B080BDC04600091040CE
:100C9000FFFFFFC3000B104080B586B000AF786047
:100CA0003B1C1733FF221A707B681B78002B2CD05B
:100CB0007B689B785B012F4A9B181A682E4B134068
:100CC0003B613A69C0231B031340FB60FA68C023F1
:100CD0001B039A4204D0FA6880231B039A4240D136
:100CE0003B698022520513433B613A69234B134011
:100CF0003B617B689B785B011E4A9B183A691A60CE
:100D00003B1C173300221A702BE07B689B785B0139
:100D10001B4A9B181A68184B13403B613A69C02361
:100D20001B031340FB60FA68C0231B039A4204D0E4
:100D3000FA6880231B039A4213D13B698022520533
:100D400013433B613A690D4B13403B617B689B78D1
:100D50005B010B4A9B183A691A603B1C173300224F
:100D60001A703B1C17331B785BB2181CBD4606B0CB
:100D700080BDC04600091040FFFFFFC3FFFFDFFF3B
:100D8000000B104080B584B000AF021CFB1D1A7030
:100D90000123FB6012E00C4B1968FA68131C9B00DE
:100DA0009B18DB003033CB181A1DFB1D1B78101C61
:100DB000191CFFF7D1FDFB680133FB60FB68032BB7
:100DC000E9DDBD4604B080BD0000002080B584B0E0
:100DD00000AF021CFB1D1A700123FB6016E0114BD3
:100DE0001968FA68131C9B009B18DB003033CB1882
:100DF0000433BB60BA682023D35C002B03D1BB68EB
:100E0000181CFFF733FEFB680133FB60FB68032B04
:100E1000E5DDFB1D1B785BB2181C02F07FF8BD46B8
:100E200004B080BD0000002080B584B000AF021C7B
:100E3000FB1D1A700023BB60FB1D1B785BB2002BEF
:100E40000BDA1A4B1968FB1D1A780F231A40D023AE
:100E50008A18D3181B79FB600AE0144B1968FB1D34
:100E60001A780F231A40E0238A18D3181B79FB60E5
:100E7000FB68002B0BD00D4B1968FA68131C9B0004
:100E80009B18DB003033CB180433BB6008E0FB1D3C
:100E90001A780F23134003D1044B1B683433BB6013
:100EA000BB68181CBD4604B080BDC04600000020D1
:100EB00080B584B000AF78607B681B68BB607B68DE
:100EC0001B6B9B68002B0CD07B681B6B9B68BA6804
:100ED000101C9847031CFB60FB68033301D0FB68C0
:100EE00053E001235B42FB60BB681B785B069B0FF2
:100EF000DBB2002B48D1BB685B780B2B43D89A0040
:100F0000244BD3181B689F467B68181C00F000FA1E
:100F1000031CFB6038E07B68181C00F03DF8031CE4
:100F2000FB6031E07B68181C00F0E0FB031CFB60F9
:100F30002AE07B68181C00F0CFFA031CFB6023E05A
:100F40007B68181C00F0F8F8031CFB601CE07B6851
:100F5000181C00F093F8031CFB6015E07B68181C5C
:100F600000F024FB031CFB600EE07B68181C00F003
:100F70007FF9031CFB6007E07B68181C00F042FC53
:100F8000031CFB6000E0C046FB68181CBD4604B0B3
:100F900080BDC046503B000080B586B000AF786091
:100FA00001235B427B617B681B683B613B699A79EB
:100FB000DB791B0213439BB2002B02D001235B425F
:100FC00058E03B691B78DB06DB0EDBB2002B02D05E
:100FD000022B28D04DE03B691A795B791B02134341
:100FE0009BB2002B1ED13B699A78DB781B0213431E
:100FF0009BB2012B16D17A682023D35C042B04D03A
:101000007A682023D35C052B0CD17B689B6ADB7943
:101010001A1C2023134005D07B6800225A77002336
:101020007B6126E025E03B691A795B791B0213435B
:101030009BB2DBB2181CFFF7F7FE031CFB60FB68DA
:10104000002B16D0FB689B78002B12D03B699A7856
:10105000DB781B0213439BB2002B0AD17A68202352
:10106000D35C052B05D1FB68181CFFF715FE031C8C
:101070007B617B69181CBD4606B080BD80B586B01B
:1010800000AF786001235B427B617B681B683B613A
:10109000284BFB603B691A795B791B0213439BB2B7
:1010A000002B1DD13B699A79DB791B0213439BB25C
:1010B000012B15D13B699A78DB781B0213439BB255
:1010C000002B0DD13B691B781B06DB0FDBB2012B1C
:1010D00006D13B691B78DB06DB0EDBB2002B02D0AE
:1010E00001235B4221E07A682023D35C042B0CD1DE
:1010F000FB6800221A70FB680020191C01220023E3
:10110000FFF7A4FB031C7B610EE07A682023D35C0D
:10111000052B09D17B681C330020191C01220023F8
:10112000FFF794FB031C7B617B69181CBD4606B06E
:1011300080BDC0468401002080B58AB000AF7860D1
:101140003B1C263300221A8000233B6201235B42B2
:10115000FB617B681B68BB61BB691B78DB06DB0E30
:10116000DBB2002B06D1BB691B781B06DB0FDBB2A1
:10117000012B02D001235B4275E0BB699A78DB78D2
:101180001B0213439BB21A1CFF2313407B61BB69F4
:101190009A78DB781B0213439BB21B0A9BB2022B8B
:1011A00011D0032B20D0012B34D17B69002B00D030
:1011B00030E07B685B6A3B627B685B6A1A783B1C49
:1011C00026331A8026E07B69002B00D022E07B6862
:1011D0009B6A3B627B689B6A3A1C26329978DB7873
:1011E0001B020B43138015E07B689B7F1A1C7B69F5
:1011F0009A420EDD7B68DA6A7B699B00D3181B6814
:101200003B613B693B623B691A783B1C26331A8081
:10121000FFE7C0463B1C26331B88002B22D03B1C1B
:101220000E333A1C263212881A803A1C0C32BB69E3
:101230009979DB791B020B4313803B1C0C333A1C5E
:101240000E3212881B8898B291B2884200D9131CC2
:101250009BB23A6A0020111C1A1C0023FFF7F6FA11
:10126000031CFB61FB69181CBD460AB080BDC0466B
:1012700080B586B000AF786001235B427B617B68FC
:101280001B683B61214BFB603B691A795B791B0250
:1012900013439AB27B68DB7F9A421DD23B699A79ED
:1012A000DB791B0213439BB2012B15D13B699A7862
:1012B000DB781B0213439BB2002B0DD13B691B78DB
:1012C0001B06DB0FDBB2012B06D13B691B78DB066B
:1012D000DB0EDBB2012B02D001235B4211E07A6806
:1012E0002023D35C052B0BD1FB6800221A70FB680E
:1012F0000020191C01220023FFF7A8FA031C7B61C0
:101300007B69181CBD4606B080BDC0468401002024
:1013100080B586B000AF786001235B427B617B685B
:101320001B683B616B4BFB603B699A78DB781B0267
:1013300013439BB2002B0ED13B699A79DB791B02D8
:1013400013439BB2022B06D13B691B781B06DB0FB4
:10135000DBB2012B02D001235B42B7E03B691B7873
:10136000DB06DB0EDBB2012B52D0022B00D179E081
:10137000002B00D0A9E03B691A795B791B0213436B
:101380009BB2002B43D17A682023D35C042B04D07A
:101390007A682023D35C052B39D1FB6800221A80A0
:1013A0007B685B7F002B06D0FB681B8802221343FF
:1013B0009AB2FB681A807B681B6BDB68002B0ED02F
:1013C0007B681B6BDB689847031C002B15D0FB6800
:1013D0001B88012213439AB2FB681A800DE07B68D8
:1013E0009B6ADB791A1C4023134006D0FB681B88DC
:1013F000012213439AB2FB681A80FB680020191C73
:1014000002220023FFF722FA031C7B615DE05CE00F
:101410007A682023D35C042B07D13B691A795B7966
:101420001B0213439BB2002B0ED07A682023D35C9F
:10143000052B16D13B691A795B791B0213439AB2CB
:101440007B68DB7F9A420CD2FB6800221A80FB6823
:101450000020191C02220023FFF7F8F9031C7B610E
:1014600033E032E03B691A795B791B0213439BB28C
:10147000DBB2181CFFF7D8FC031CBB60BB68002B59
:1014800022D07A682023D35C042B03D1BB689B78DD
:10149000002B04D07A682023D35C052B14D1BA68C2
:1014A000FB68101C191CFFF713FB031C7B617B6995
:1014B000002B09D1FB680020191C02220023FFF732
:1014C000C5F9031C7B61FFE7C0467B69181CBD465C
:1014D00006B080BD8401002080B584B000AF786084
:1014E00001235B42FB607B681B68BB60BB681A79A9
:1014F0005B791B0213439BB2002B16D1BB689A7910
:10150000DB791B0213439BB2002B0ED1BB689A7888
:10151000DB781B0213439BB27F2B06D8BB681B787A
:10152000DB06DB0EDBB2002B02D001235B4239E08D
:101530007A682023D35C032B17D1BB689A78DB78B9
:101540001B0213439BB2002B02D00420FFF73AF991
:10155000BB689A78DB781B0213439BB2DBB2181C82
:10156000FFF718FB0023FB601BE07A682023D35CA5
:10157000042B16D1BB689A78DB781B0213439BB20D
:10158000002B02D10320FFF71DF9BB689A78DB78A6
:101590001B0213439BB2DBB2181CFFF7FBFA0023BC
:1015A000FB60FB68181CBD4604B080BD80B584B0EC
:1015B00000AF786001235B42FB607B681B68BB6007
:1015C000BB681A795B791B0213439BB2002B18D1BD
:1015D000BB689A79DB791B0213439BB2002B10D1B5
:1015E000BB689A78DB781B0213439BB21B0A9BB241
:1015F000002B06D1BB681B78DB06DB0EDBB2002BB1
:1016000002D001235B426CE07A682023D35C042B78
:101610002FD1BB689A78DB781B0213439BB2002B57
:101620000AD0BB689A78DB781B0213439AB27B68B6
:101630009B6A5B799A4253D1BB689A78DB781B022C
:1016400013439BB2DAB27B681A77BB689A78DB786F
:101650001B0213439AB27B689B6A5B799A4205D15D
:101660000120FFF78FFB0520FFF7ACF80023FB609C
:1016700036E07A682023D35C052B31D1BB689A7899
:10168000DB781B0213439BB2002B0AD0BB689A780D
:10169000DB781B0213439AB27B689B6A5B799A42A0
:1016A0001ED1BB689A78DB781B0213439BB2DAB277
:1016B0007B681A77BB689A78DB781B0213439BB26E
:1016C000002B08D10420FFF77DF809235B42181C8A
:1016D000FFF77CFB02E00020FFF754FB0023FB60D8
:1016E000FB68181CBD4604B080BDC04680B586B0FE
:1016F00000AF786001235B427B617B681B683B61C4
:101700003B699A79DB791B0213439BB2002B02D011
:1017100001235B4271E03B691B78DB06DB0EDBB229
:10172000002B02D0022B23D066E03B691A795B794B
:101730001B0213439BB2002B19D13B699A78DB78CB
:101740001B0213439BB2012B11D17A682023D35C77
:10175000052B0CD17B689B6ADB791A1C2023134074
:1017600005D07B6801225A7700237B6144E043E087
:101770003B691A795B791B0213439BB2DBB2181CDD
:10178000FFF752FB031CFB60FB68002B34D0FB68A7
:101790009B78002B30D03B699A78DB781B0213438F
:1017A0009BB2002B28D17A682023D35C052B23D150
:1017B000FB68181CFFF70AFA031C7B61FA682023F8
:1017C0000021D1547B69002B16D1FA682023D35C09
:1017D000002B11D0FB685B6A002B0DD0FB685B6AA5
:1017E000BB60FB6800225A62FB685969FB681A6992
:1017F00005235842BB6898477B69181CBD4606B054
:1018000080BDC04680B584B000AF786001235B42E4
:10181000FB607B681B68BB60BB681A795B791B0245
:1018200013439AB27B68DB7F9A4220D2BB689A79D5
:10183000DB791B0213439BB2002B18D1BB689A784B
:10184000DB781B0213439BB2002B10D17A68202354
:10185000D35C052B0BD1BB681B78DB06DB0EDBB240
:10186000012B04D10020FFF78DFA002300E0FB6874
:10187000181CBD4604B080BD80B586B000AF78604E
:101880003B1C1333FF221A707B681B78002B29D076
:101890007B689B785B01284A9B181A68274B13408A
:1018A0007B617A69C0231B031340FB60FA688023C5
:1018B000DB029A4237D07B69002B04DA7B698022F5
:1018C000D20513437B617B689B785B011A4A9B18A6
:1018D0007A69802189030A431A603B1C1333002272
:1018E0001A7020E07B689B785B01154A9B181A6888
:1018F000124B13407B617A69C0231B031340FB60CA
:10190000FA688023DB029A420DD07B689B785B01EA
:101910000B4A9B187A69802189030A431A603B1C91
:10192000133300221A703B1C13331B785BB2181C54
:10193000BD4606B080BDC04600091040FFFFFFC392
:10194000000B104080B582B000AF786039600B4A60
:101950007B68802109031943094BD150074A074985
:10196000084BC958084B19403B680B4384210906B2
:101970001943044BD150BD4602B080BD00400C401D
:1019800010C9030000C90300FFFFFF4380B582B008
:1019900000AF786039600B4A7B68802109031943E6
:1019A000094BD150074A0749084BC958084B194001
:1019B0003B680B43842109061943044BD150BD46B3
:1019C00002B080BD00400C4010CB030000CB0300F0
:1019D000FFFFFF4380B582B000AF78607A683423A0
:1019E0000021D1540F4A104B1049D1507B681A1D69
:1019F0007B681A600B4A7B681B68191C0C4BD15022
:101A0000084A08490B4BC9580B4B19407868F42316
:101A1000C3580B43802109061943064BD150BD46DC
:101A200002B080BD00400C4010CB030018000860DD
:101A300014CB030000CB0300FFFFFF4380B584B04D
:101A400000AF021CFB1D1A700023BB60FB1D1B783E
:101A50005BB2002B0BDA1A4B1968FB1D1A780F23A7
:101A60001A40D0238A18D3181B79FB600AE0144B64
:101A70001968FB1D1A780F231A40E0238A18D3181F
:101A80001B79FB60FB68002B0BD00D4B1968FA68C3
:101A9000131C9B009B18DB003033CB180433BB6056
:101AA00008E0FB1D1A780F23134003D1044B1B6879
:101AB0003433BB60BB68181CBD4604B080BDC04653
:101AC0000000002080B584B000AF78607B681B7890
:101AD000002B17D07B681B69FB603B1C0A337A68BC
:101AE00092891A803B1C0A331B88FA68934200D9FA
:101AF000131C0B4A1168F4228A58181C111CFFF79A
:101B000021FF0AE07B689B891A1C054B1968F423A6
:101B1000CB58101C191CFFF739FFBD4604B080BD1F
:101B20000000002090B585B000AF78607B6834334A
:101B3000BB60BA682023D35C042B00D932E19A0041
:101B40009A4BD3181B689F46BB6800225A70BB682B
:101B500000221A61964B00221A607B68181CFFF75E
:101B6000A7F9031CFB60FB68013313D1BB6801229A
:101B70001A70BB68181CFFF77FFEBB6800221A7042
:101B8000BB68181CFFF778FE8A4B1B68181CFFF710
:101B900021FF46E0BA682023D35C022B04D0BA6848
:101BA0002023D35C012B03D1BB685A6A804B1A6097
:101BB000BA682023D35C022B33D0BB681B69002B8F
:101BC00019D0BB681A697B681B689979DB791B029D
:101BD0000B439BB29A4224D2BB681A69BB689B89AB
:101BE000101C191C01F0F6FE0B1C002B19D1BB6850
:101BF00001225A70D6E0704B00221A60BB685B78F5
:101C0000002B0ED1BA6820230021D15400200021DE
:101C100000220023FEF71AFEBA6820230321D154C4
:101C2000C0E0BFE0BB681B69002B07D0BB68002287
:101C30001A70BB68181CFFF745FF41E00023FB60EA
:101C40005B4B1B68002B0CD0594B1C68BB685B6955
:101C50000020191C0022A047031CFB60544B0022EB
:101C60001A60FB68002B17D0BB6801221A70BB6892
:101C7000181CFFF701FEBB6800221A70BB68181C15
:101C8000FFF7FAFD4B4B1B68181CFFF7A3FEBA6861
:101C900020230021D15413E0464B1B68181CFFF78A
:101CA00099FEBA6820230021D1540020002100228F
:101CB0000023FEF7CBFDBA6820230321D15471E045
:101CC00070E0BB681B69002B07D0BB6801221A704B
:101CD000BB68181CFFF7F6FE2CE0BB685B78012B95
:101CE00011D1BB685A69344B1A60BA6820230021AD
:101CF000D1540020002100220023FEF7A7FDBB687D
:101D000002225A7016E0BB685B78002B03D1BB68D7
:101D10005A69294B1A60BA6820230021D154002047
:101D2000002100220023FEF7C9FCBA682023042109
:101D3000D15437E036E0214A214BD358002B04DB45
:101D40001C4B1B68181CFFF745FE194B1B68002B2A
:101D500007D0174B1C68184B1B680020191C002269
:101D6000A047BA6820230021D154BB6800221A7012
:101D700018E0104B1B68181CFFF72CFE0C4B1B685F
:101D8000002B07D00A4B1C680B4B1B680020191C4A
:101D90000022A047BA6820230021D154BB6800224A
:101DA0001A70C046BD4605B090BDC046803B0000DD
:101DB00088010020000000208C01002000400C4021
:101DC00000CB030080B584B000AF021CFB1D1A706D
:101DD000FB1D1B78181CFFF731FE031CFB60FA6823
:101DE0002023D35C012B04D0FA682023D35C022B80
:101DF00014D1FA6820230021D154FB685B6A002BC0
:101E00000CD0FB685B6ABB60FB6800225A62FB680F
:101E10005969FB681A69BB6800209847BD4604B041
:101E200080BDC04680B500AF72B6074B1B6801335A
:101E300004D0054B1B685A1C034B1A60024B1B68ED
:101E4000181CBD4680BDC0469801002080B582B0F8
:101E500000AF0B4B1B68002B0DD0094B1B685A1EA3
:101E6000074B1A60064B1B687B607B68002B00D118
:101E700062B67B6800E00023181CBD4602B080BD3E
:101E80009801002080B582B000AF021CFB1D1A70C3
:101E9000084AFB1D1B789B0120211943064BD1509A
:101EA000C046044A044BD25820231340F9D1BD4602
:101EB00002B080BD00400C4010C0030080B582B06D
:101EC00000AF074A074BD3587B60054A064BD258F0
:101ED0007B6813407B607B68181CBD4602B080BDE8
:101EE00000400C4014C0030018C0030080B584B04B
:101EF00000AF78600D4A0E4B0021D1500B4A0D4BBC
:101F000001214942D1500C4BFB607B681B6B1B6964
:101F1000002B03D0FB6808221343FB60034A044BE9
:101F2000F968D150BD4604B080BDC04600400C40A9
:101F300018C0030014C0030000380C8080B582B0C4
:101F400000AF78600D4A0D490D4BC9580D4B0B4041
:101F50008021490019430A4BD150084A07490A4BCE
:101F6000C9580A4B19407B680B4384210906194361
:101F7000054BD150BD4602B080BDC04600400C406C
:101F800004C803007FF8FFFF00CB0300FFFFFF43FF
:101F900080B582B000AF084A084BD3587B60064A30
:101FA000074BD2587B6813407B607B681B041B0C7B
:101FB000181CBD4602B080BD00400C4018C803008C
:101FC0001CC8030080B582B000AF084A084BD35844
:101FD0007B60064A074BD2587B6813407B607B6866
:101FE0001B0C181CBD4602B080BDC04600400C4012
:101FF00018C803001CC8030080B584B000AF786027
:10200000084A094BD358FB607B689B785B01074A01
:102010009B189B68BB60BB68FA681340181CBD46E0
:1020200004B080BD00400C4010C8030000091040FF
:1020300080B584B000AF78607B689B785B01094A0B
:102040009B189B68FB60084A084BD35880221202F9
:102050001A43FB681340FB60FB68181CBD4604B0C4
:1020600080BDC046000B104000400C4014C8030067
:1020700080B582B000AF78607A6834230021D154F3
:102080000F4A104B1049D1507B681A1D7B681A60AB
:102090000B4A7B681B68191C0C4BD150084A084935
:1020A0000B4BC9580B4B19407868F423C3580B43AA
:1020B000802109061943064BD150BD4602B080BDB0
:1020C00000400C4010CB03001800086014CB030044
:1020D00000CB0300FFFFFF4380B584B000AF021CBC
:1020E000FB1D1A700023BB60FB1D1B785BB2002B2D
:1020F0000BDA1A4B1968FB1D1A780F231A40D023EC
:102100008A18D3181B79FB600AE0144B1968FB1D71
:102110001A780F231A40E0238A18D3181B79FB6022
:10212000FB68002B0BD00D4B1968FA68131C9B0041
:102130009B18DB003033CB180433BB6008E0FB1D79
:102140001A780F23134003D1044B1B683433BB6050
:10215000BB68181CBD4604B080BDC046000000200E
:1021600080B582B000AFFB1C00221A70FFF75AFE48
:10217000464B9B68002B25D0444B1A6880239B025A
:1021800013401FD0414B9A68012313400AD03F4BA4
:1021900001221A613D4B5A680123134002D0FB1CF7
:1021A00001221A70394B9A68022313400AD0374B28
:1021B00002221A61354B5A680123134002D1FB1CDD
:1021C00001221A70FFF77AFE031C7B607B68002BEC
:1021D00002D1FFF73BFE56E07A6880231B041340D0
:1021E00005D000F06FF97A68294B13407B607B685B
:1021F000002B05DA00F054FA7B685B005B087B601B
:102200007A6880231B01134005D000F015FA7A6824
:10221000204B13407B607A680823134005D000F000
:102220006BF97B68082293437B607A6880239B016B
:10223000134005D000F038F87A68174B13407B60E4
:102240007A6880235B01134005D000F07BF97A683F
:10225000124B13407B607A688023DB02134005D069
:1022600000F03AF87A680E4B13407B607A6880235E
:102270001B03134005D000F0D9F87A68094B1340CE
:102280007B60FFF7E3FDBD4602B080BD00400C401F
:10229000FFFF7FFFFFF7FFFFFFDFFFFFFFEFFFFF06
:1022A000FFFFFBFFFFFFF7FF80B500AF094B1A6888
:1022B000F423D358181CFFF741FE064B1A68542329
:1022C0000021D154034B1B68181CFFF70FFEBD46BD
:1022D00080BDC0460000002080B584B000AFFEF78E
:1022E000E1F9031C062B06D14E4B1A682123D35C5F
:1022F000181CFEF767FAFFF74BFE021C3B1C083365
:102300001A800023FB603B1C0A3301221A8081E003
:102310003B1C08333A1C0A321B88128813409BB2BC
:10232000002B6DD0FB68DBB2802252421343DBB23C
:10233000DBB2181CFFF7D0FE031C7B607B68181C07
:10234000FFF75AFE031C3B603A680123134057D045
:10235000FB685B0134495B1801229A60FB68002B23
:1023600024D17B681A697B689B899A420ED97B6865
:102370001A697B689B89D21A7B681A617B685A69E3
:102380007B689B89D2187B685A6109E07B685A692F
:102390007B681B69D2187B685A617B6800221A61CE
:1023A000204B1B68181CFFF7BDFB29E07B681A69EE
:1023B000FB685B011C495B181B695B035B0BD21A52
:1023C0007B685A617B681A697B685B69D21A7B6893
:1023D0001A617B68DB78181CFFF7F4FC7B689B783C
:1023E0005B01114A9B189A6880239B01134007D018
:1023F0007B689B785B010C495B18802292019A6094
:10240000FB680133FB603A1C0A323B1C0A331B8811
:10241000DB181380FB68032B00DC79E7BD4604B0B2
:1024200080BDC046000000200009104080B584B087
:1024300000AFFEF737F9031C062B06D1204B1A68B4
:102440002123D35C181CFEF7BDF9FFF7BBFD021C6E
:102450003B1C08331A800023FB603B1C0A3301221B
:102460001A8026E03B1C08333A1C0A321B8812886B
:1024700013409BB2002B12D0FB68DBB2181CFFF795
:102480002BFE031C7B607B68181CFFF7D1FD031C2F
:102490003B603A687B68101C191C00F017F9FB6858
:1024A0000133FB603A1C0A323B1C0A331B88DB18E1
:1024B0001380FB68032BD5DDBD4604B080BDC0464C
:1024C0000000002080B500AF094A0A4B80210904B2
:1024D000D150074B5A680123134003D00320FEF765
:1024E00071F902E00020FEF76DF9BD4680BDC046DF
:1024F00000400C4014C0030080B500AF0C4A0D4BE7
:102500000821D1500C4B1B681B6B1B69002B0CD096
:10251000094B1B681B6B1B690549084A8958084A07
:102520000A40120A92B2101C9847BD4680BDC046B0
:1025300000400C4014C003000000002008C8030045
:1025400000FF3F0080B582B000AF304A2F49304BCA
:10255000C958304B19402E4BD1500020FFF792FC48
:1025600000237B6009E07B685B012B4A9B180122FA
:1025700052429A607B6801337B607B68032BF2DDFB
:1025800000237B6009E07B685B01244A9B180122E1
:1025900052429A607B6801337B607B68032BF2DDDB
:1025A0001A4A1F4B1F49D150184A1F4B2921D1509D
:1025B000164A1E4B0121D150144A1449F2239B02A2
:1025C000C9581B4B1940F2239B02D150194B1B6871
:1025D000181CFFF74DFD174B1B68181CFFF786FCF6
:1025E000144B1B681B6B1B68002B04D0114B1B6822
:1025F0001B6B1B6898470320FEF7E4F80B235B4234
:10260000181C00F08BFCBD4602B080BD00400C40A1
:1026100004C803007EF8FFFF00091040000B1040C3
:102620001CC803000100010014C8030010C8030007
:102630000FF8FFFF0000002090B583B000AF164AEE
:10264000164B80210901D1500A235B42181C00F06F
:1026500065FCFEF727F8031C002B02D10220FEF7D1
:10266000B1F8FC1DFEF71EF8031C2370FB1D1B7840
:10267000022B0BD0FB1D1B78032B07D0FB1D1B78F7
:10268000042B03D0FB1D1B78052B02D10620FEF77F
:1026900099F8BD4603B090BD00400C4014C0030043
:1026A00080B500AF064A074B80210906D150064B82
:1026B0001A682123D35C181CFEF784F8BD4680BD40
:1026C00000400C4014C003000000002080B586B01C
:1026D00000AF786039603B689B78002B00D0CFE07A
:1026E0007A680123134000D19CE0794A794B01219B
:1026F000D150774A784BD358FB603A682023D35C9B
:10270000002B5BD17A6880231B02134004D0704AEF
:10271000704B80210902D1503B68181CFFF788FCE0
:10272000031C7B606A4A6C4BD358FB607A680823B1
:10273000134032D0664A674B0821D1507B6808228B
:1027400093437B60FA68C023DB0513405B0F7B611A
:102750007B69032B01D102237B61604B1B685F4ABD
:1027600011687A690220821AD2008A1804321A602B
:102770005A4B1B68181CFFF7D5F93A682023D35C25
:10278000032B04D03A682023D35C012B4AD1534B4E
:102790001B68181CFFF76CFC44E03B68181CFFF733
:1027A00047FC031C7B607A680823134000D0C1E714
:1027B0004A4B1B68181CFFF75BFC33E03A68202388
:1027C000D35C022B24D13B681A693B689B899A42EF
:1027D0000ED93B681A693B689B89D21A3B681A611B
:1027E0003B685A693B689B89D2183B685A6109E08B
:1027F0003B685A693B681B69D2183B685A613B6861
:1028000000221A61354B1B68181CFFF78BF909E091
:102810003A682023D35C042B04D1304B1B68181C6E
:10282000FFF780F97A682023134003D0284A294B08
:102830002021D1507A680823134045D0244A254BE3
:102840000821D150224A244BD258C023DB05134023
:102850005B0F3B613B69032B01D102233B611F4BA3
:102860001B681E4A11683A690220821AD2008A182F
:1028700004321A60194B1B68181CFFF753F923E048
:102880007A68012313401FD03B689B785B01144991
:102890005B1801229A603B689A693B689B785B01F0
:1028A0000F495B181B695B035B0BD21A3B685A61CB
:1028B0003B681A693B685B69D21A3B681A613B68DE
:1028C000DB78181CFFF77EFABD4606B080BDC04617
:1028D00000400C4008CB030010CB03000000002098
:1028E000000B104080B582B000AF021CFB1D1A70B7
:1028F000064AFB1D1B78191C1F230B400121994020
:10290000C0235B00D150BD4602B080BD00E100E0B5
:1029100080B582B000AF021CFB1D1A70084AFB1D77
:102920001B789B0120211943064BD150C046044A15
:10293000044BD25820231340F9D1BD4602B080BDCC
:1029400000400C4010C0030080B584B000AF786038
:102950007B681B78002B0AD07B689B785B010F4A51
:102960009B1800221A607B68DB89FB600AE07B68A9
:102970009B785B010A4A9B1800221A607B68DB89FE
:102980001B04FB60074A0749074BCB58F968C9434A
:102990001940054BD150BD4604B080BD0009104020
:1029A000000B104000400C401CC8030080B584B0F0
:1029B00000AF7860084A094BD358FB607B689B786E
:1029C0005B01074A9B189B68BB60BB68FA681340B1
:1029D000181CBD4604B080BD00400C4010C8030068
:1029E0000009104080B584B000AF78607B689B78A8
:1029F0005B01094A9B189B68FB60084A084BD35847
:102A0000802212021A43FB681340FB60FB68181C0B
:102A1000BD4604B080BDC046000B104000400C40D5
:102A200014C8030080B582B000AF78607B681B7863
:102A3000002B11D07B689B785B011A495B187A6880
:102A400092785201174952181168174A0A4090218A
:102A5000C9050A431A6021E07B689B785B01134A31
:102A60009B187A6892785201104952181168104ADE
:102A70000A40802109060A431A607B689B785B0143
:102A80000A4A9B187A6892785201084952181168CC
:102A9000054A0A409021C9050A431A60BD4602B0A2
:102AA00080BDC04600091040FFFFFF83000B1040AF
:102AB000FFFFFF4380B586B000AF3B1C0A33002206
:102AC0001A803B1C083300221A8001237B6145E0F9
:102AD000AB4B19687A69131C9B009B18DB003033E1
:102AE000CB1804337B607A682023D35C002B32D070
:102AF0007B681B78002B17D07B68D9893B1C0A3375
:102B00003A1C0A3212880A431A807B689B785B0160
:102B10009C481B187A68927852019A495218926818
:102B200042210A439A6016E07B68D9893B1C08332E
:102B30003A1C083212880A431A807B689B785B0132
:102B4000914A9B187A68927852018F4812189268BD
:102B500002210A439A607B6901337B617B69032B05
:102B6000B6DD3B1C0A331B88002B3BD0874A8749C4
:102B7000874BCB5842211943854BD1503B1C0E3318
:102B80003A1C0A3212881A8001237B6127E07C4BB1
:102B900019687A69131C9B009B18DB003033CB1833
:102BA00004337B607B68DB893A1C0E321288134049
:102BB0009BB2002B10D07B689B785B0171495B183E
:102BC0007A68927852016F4812181168714A0A4067
:102BD000802109050A431A607B6901337B617B69A7
:102BE000032BD4DD3B1C08331B88002B3ED0674AE7
:102BF0006649694BC958694B0B408021C90019438C
:102C0000654BD150614A6149654BCB5880211943CE
:102C1000634BD1505D4A5D495F4BC9585F4B0B40D8
:102C20008021890019435C4BD1505E4B3B6102E02F
:102C30003B69013B3B61554A5B4BD25880231340B3
:102C400002D13B69002BF3D1504A5049544BCB5829
:102C50008021181C8843011C514BD1504B4A4B49D1
:102C6000524BCB5802211943504BD1503B1C0A33D5
:102C70001B88002B55D03B1C0E333A1C0A3212889D
:102C80001A80484B3B6101237B6132E03C4B196861
:102C90007A69131C9B009B18DB003033CB1804337C
:102CA0007B607B68DB893A1C0E32128813409BB232
:102CB000002B1BD07B68181CFFF778FE021C4023FA
:102CC000134013D07B689B785B012E495B18402230
:102CD0009A607B68DB899BB2DB439BB23A1C0E3265
:102CE000128813409AB23B1C0E331A807B69013361
:102CF0007B617B69032BC9DD3B69013B3B613B1C6D
:102D00000E331B88002B02D03B69002BBBD11F4A1E
:102D10001E491F4BCB584021181C8843011C1C4BDB
:102D2000D15001237B6116E0154B19687A69131C99
:102D30009B009B18DB003033CB1804337B607A6830
:102D40002023D35C002B03D07B68181CFFF76AFE9E
:102D50007B6901337B617B69032BE5DD3B1C0E3313
:102D60003A1C0A3212881A803B1C0C333A1C083277
:102D700012881A800B4B3B6101237B617BE0C046CC
:102D80000000002000091040000B104000400C40E3
:102D900010C80300FFFFFFC304C803007FF8FFFF54
:102DA00018C00300983A000014C0030014C80300C0
:102DB000524B19687A69131C9B009B18DB00303357
:102DC000CB1804337B607B681B78002B24D07B6896
:102DD000DB893A1C0E32128813409BB2002B1BD0A9
:102DE0007B68181CFFF7E2FD021C0223134013D07E
:102DF0007B689B785B0142495B1802229A607B6882
:102E0000DB899BB2DB439BB23A1C0E321288134023
:102E10009AB23B1C0E331A807B681B780122534008
:102E2000DBB2002B24D07B68DB893A1C0C32128881
:102E300013409BB2002B1BD07B68181CFFF7D2FD00
:102E4000021C0223134013D07B689B785B012D4A40
:102E50009B1802229A607B68DB899BB2DB439BB2A2
:102E60003A1C0C32128813409AB23B1C0C331A8065
:102E70007B6901337B617B69032B99DD3B69013BF6
:102E80003B613B1C0E331B88002B04D13B1C0C33D5
:102E90001B88002B03D03B69002B00D06CE73B1C48
:102EA0000A331B88002B0CD0174A1749174BCB58F5
:102EB0000221181C8843011C144BD1501020FFF72D
:102EC00027FD3B1C08331B88002B14D00E4A0E49EB
:102ED0000F4BCB580221181C8843011C0C4BD150BE
:102EE000094A09490B4BC9580B4B0B408021C900BB
:102EF0001943084BD150BD4606B080BD00000020EC
:102F000000091040000B104000400C4010C80300A6
:102F100014C8030004C803007FF8FFFF80B586B023
:102F200000AF021CFB1D1A70FB1D1B785BB21A1C44
:102F30000B3201D0FFF7BEFD01237B6139E0214B4D
:102F400019687A69131C9B009B18DB003033CB187F
:102F500004333B613A692023D35C002B26D03A69C5
:102F600020230021D1543B695B6A002B1ED03B69B2
:102F70005B6AFB603B6900225A62124B1A6822238B
:102F8000D35C052B09D10F4B1A682023D35C042B8B
:102F900003D13B69181CFFF7D7FC3B6959693B69B2
:102FA0001A69FB1D00201856FB6898477B6901339E
:102FB0007B617B69032BC2DD1320FFF793FCBD46C9
:102FC00006B080BD0000002080B500AF72B6074B90
:102FD0001B68013304D0054B1B685A1C034B1A6055
:102FE000024B1B68181CBD4680BDC04698010020DE
:102FF00080B582B000AF0B4B1B68002B0DD0094B86
:103000001B685A1E074B1A60064B1B687B607B6867
:10301000002B00D162B67B6800E00023181CBD467F
:1030200002B080BD9801002080B582B000AF78600A
:1030300039607A683B6803331B01D3185B68181C3E
:10304000BD4602B080BDC04680B584B000AFF86018
:10305000B9607A60FA68BB6803331B01D3187A68D9
:103060005A60BD4604B080BD80B582B000AF7860C4
:1030700039607B683A689A61BD4602B080BDC0463F
:1030800080B582B000AF78607B681B69181CBD46B4
:1030900002B080BD80B582B000AF114B181CFFF7A5
:1030A000EFFF031C7B607A681023134015D00C4B94
:1030B000181C1021FFF7D8FF094B181C0021FFF73F
:1030C000B3FF021C074B1B68D318054A101C0021D4
:1030D0001A1CFFF7B9FF00F007F8BD4602B080BD2B
:1030E000000001409401002080B582B000AFFFF7DE
:1030F0006BFF164B1B68002B23D0144B1B681A6800
:10310000013A1A6019E0114B1B681B68002B13D1A0
:103110000E4B1B689B687B600C4B1B6800221A736C
:103120000A4B1B685A68094B1A607B68002B02D057
:103130007B68984701E000E003E0044B1B68002B2C
:10314000E1D1FFF755FFBD4602B080BD90010020E0
:1031500090B58BB000AF324A80235B01D358BB617E
:103160002F4A304BD258BB691340BB612C4B9B6B31
:103170007B61BB697A6913403B620023FB6148E0D5
:1031800000237B623AE03A6A0123134030D0244B9B
:103190009B683B6101227B6A111C99400B1CFB6000
:1031A0001F4A214BF968D1507B6A1B013A69D31839
:1031B000DB68BB60BB68002B1AD0BB681B7A7B60E6
:1031C000BB681B7A01225340DAB2BB681A72BB6833
:1031D0001B68002B0CD0BB681C68796A7B685A1E80
:1031E0009341DAB2BB685B68081C111C1A1CA0472B
:1031F0003B6A5B083B627B6A01337B623B6A002B64
:10320000C1D17B69DB43BA6913403B62FB6901337F
:10321000FB61FB69012BB3DDBD460BB090BDC04621
:1032200000200C400C1000000810000080B584B095
:1032300000AF78607B68002B02D0012B04D007E040
:10324000074B9B68FB6006E0054BDB68FB6002E018
:103250000023FB60C046FB68181CBD4604B080BD5F
:103260000000084080B584B000AF786039607B68AA
:10327000012B04D83B681B0E1B0600D1C0467B689F
:10328000002B02D0012B03D008E0064BFB6002E0CC
:10329000054BFB60C046FB683A681A60BD4604B047
:1032A00080BDC046080008400C00084080B500AF53
:1032B00072B6074B1B68013304D0054B1B685A1CC0
:1032C000034B1A60024B1B68181CBD4680BDC046EC
:1032D0009801002080B582B000AF0B4B1B68002B1B
:1032E0000DD0094B1B685A1E074B1A60064B1B6812
:1032F0007B607B68002B00D162B67B6800E0002316
:10330000181CBD4602B080BD9801002080B500AFFA
:10331000024B5B68181CBD4680BDC04600000840DB
:1033200080B582B000AF7860024B7A689A61BD4682
:1033300002B080BD0000084080B582B000AF786068
:10334000044B044AD2697968C9430A40DA61BD4630
:1033500002B080BD0000084080B582B000AF786048
:10336000044B044AD1697A680A43DA61BD4602B067
:1033700080BDC0460000084080B500AF024B1B690D
:10338000181CBD4680BDC0460000084080B584B012
:1033900000AFFFF78BFFFFF7EFFF031CBB60BA68BE
:1033A000022313403DD0214B01221A70FFF7AEFFDC
:1033B000031CFB600220FFF7BFFFFB681A021C4BD7
:1033C0001B681B02D31A1B0A7B607B68181C00F069
:1033D00033F800F0DFF9FB68181C00F011FAFFF772
:1033E00095FF031CFB60FB681A02114B1B681B0254
:1033F000D31A1B0A7B600020FFF718FF031C1A0278
:103400000B4B1B681B02D31A1B0A3B60094B1B7832
:10341000002B03D07A683B689A42CBD8034B00223A
:103420001A70FFF757FFBD4604B080BD440200206C
:103430004002002045020020F0B5474680B498B015
:1034400000AF78650023FB6598E1D1488446F86DAC
:103450001824031C9B001B18DB0063441B1900206D
:103460005871CB4B9C46F86D1824031C9B001B180D
:10347000DB0063441B191B79002B00D17BE1C44C9A
:10348000F86D031C9B001B18DB00E3185C681B68CD
:10349000786D011C0020021C944202D826D18B4278
:1034A00024D9BB4CF86D031C9B001B18DB00E318F0
:1034B0001C685D68BC60FD60786D386000207860D5
:1034C000BD68FE683B687C68ED1AA641BD64FE6479
:1034D000AF4CF86D031C9B001B18DB00E318BB60AE
:1034E000BC6CFD6CBE683460756044E1A8488446DD
:1034F000F86D1824031C9B001B18DB0063441B1988
:10350000DB79002B0CD1A24B9C46F86D1824031CD0
:103510009B001B18DB0063441B190020187111E18C
:103520009B4CF86D031C9B001B18DB00E318083351
:103530001C685D68BC60FD60786D3864002078644C
:10354000BD68FE683B6C7C6CED1AA641BD63FE63F2
:103550008F4CF86D031C9B001B18DB00E3185C68A4
:103560001B68BD6BFE6BED1866413D637E63884C46
:10357000F86D031C9B001B18DB00E3183C6B7D6B94
:103580001C605D60824DAC46F86D1024031C9B00EE
:103590001B18DB0063441B191B68002B69DD7C4E84
:1035A000B446F86D1024031C9B001B18DB00634419
:1035B0001B195C6876488046F86D10239C46031CF6
:1035C0009B001B18DB00434463441B68E418704DE8
:1035D000A846F86D1026B446031C9B001B18DB00A0
:1035E000434463445C606A488446F86D1024031CBD
:1035F0009B001B18DB0063441B195B68F32B00D88E
:10360000A0E0634CF86D031C9B001B18DB00E31863
:103610001C685D68BC62FD6201230024BD6AFE6A0D
:10362000ED1866413D627E62594CF86D031C9B00AB
:103630001B18DB00E3183C6A7D6A1C605D60544D1A
:10364000AC46F86D1024031C9B001B18DB00634480
:103650001B195B681C1CF43C4D4EB046F86D1023E2
:103660009C46031C9B001B18DB00434463445C60C6
:1036700068E0474CA446F86D1024031C9B001B18FF
:10368000DB0063441B195C68414DA846F86D1026A9
:10369000B446031C9B001B18DB00434463441B68B7
:1036A000E41A3B488046F86D10239C46031C9B009F
:1036B0001B18DB00434463445C60354CA446F86D42
:1036C0001024031C9B001B18DB0063441B195B6860
:1036D000F32B37D92E4CF86D031C9B001B18DB0015
:1036E000E3181D685E68BD61FE6101235B42DC1763
:1036F000BD69FE69ED1866413D617E61244CF86D3F
:10370000031C9B001B18DB00E3183C697D691C60EF
:103710005D601F4DAC46F86D1024031C9B001B1808
:10372000DB0063441B195B681C1CF43C184EB0465C
:10373000F86D10239C46031C9B001B18DB004344C0
:1037400063445C60124CA446F86D1824031C9B0073
:103750001B18DB0063441B191B68002B0BD00C4D9E
:10376000AC46F86D1824031C9B001B18DB00634457
:103770001B1901205871FB6D0133FB65FB6D032B99
:1037800000DC62E6BD4618B004BC9046F0BDC04601
:10379000A0010020B0B582B000AF00237B6026E01E
:1037A00016487A681821131C9B009B18DB00C3186D
:1037B0005B185B79002B17D010487A681821131C0E
:1037C0009B009B18DB00C3185B181C6879680B4DC5
:1037D0007A682020131C9B009B18DB00EB181B1839
:1037E0001B68081C191CA0477B6801337B607B6841
:1037F000032BD5DDBD4602B0B0BDC046A001002000
:10380000F0B58BB000AF786001235B42DC17BB6181
:10381000FC6100237B622BE039487A6A1821131C73
:103820009B009B18DB00C3185B181B79002B1CD076
:1038300033497A6A131C9B009B18DB00CB185C6829
:103840001B68FA69A24205D8FA69A2420DD1BA6989
:103850009A420AD92A497A6A131C9B009B18DB00FA
:10386000CB185C681B68BB61FC617B6A01337B62BF
:103870007B6A032BD0DD234B00221A70BB69013316
:1038800002D1FB69013338D0BB69FC693B617C61C3
:103890001D4BFB60FB681D1C00231E1C39697A69E7
:1038A0002B1C341C944202D803D18B4201D90B1C2F
:1038B000141CBB61FC61154B1B7801225340DBB229
:1038C000002B05D07B681B021A0A114B1A6002E01C
:1038D0000F4B7A681A600220FFF722FDBA697B68F5
:1038E000D3181B021B0A0020191CFFF7BBFC054B59
:1038F00001221A700220FFF72FFDBD460BB0F0BD6C
:10390000A0010020450200209BFFFF004402002090
:1039100040020020064880470649074A074B9B1A89
:1039200003DD043BC858D050FBDCFCF7E3FB000090
:1039300045390000A83B0000000000207000002076
:10394000FEE7C04680B500AFBD4680BD002934D03B
:103950000123002210B488422CD301242407A14261
:1039600004D2814202D209011B01F8E7E400A1421E
:1039700004D2814202D249005B00F8E7884201D3B9
:10398000401A1A434C08A04202D3001B5C08224391
:103990008C08A04202D3001B9C082243CC08A04202
:1039A00002D3001BDC082243002803D01B0901D0EE
:1039B0000909E3E7101C10BC7047002801D0002063
:1039C000C04307B4024802A14018029003BDC0469C
:1039D000D90000000029F0D003B5FFF7B9FF0EBCF5
:1039E0004243891A1847C046002941D010B4041C2C
:1039F0004C40A44601230022002900D5494200285A
:103A000000D5404288422CD301242407A14204D28D
:103A1000814202D209011B01F8E7E400A14204D26D
:103A2000814202D249005B00F8E7884201D3401A84
:103A30001A434C08A04202D3001B5C0822438C08A6
:103A4000A04202D3001B9C082243CC08A04202D310
:103A5000001BDC082243002803D01B0901D0090900
:103A6000E3E7101C6446002C00D5404210BC7047B0
:103A7000002806D003DB0020C043400801E080207E
:103A8000000607B4024802A14018029003BDC046D8
:103A9000190000000029EBD003B5FFF7A7FF0EBC0B
:103AA0004243891A1847C0467047C046084B10B5B4
:103AB000041C002B02D0002100E000BF054B186859
:103AC000836A002B00D09847201C00F033F8C046D2
:103AD00000000000983B000070B50E4B0E4D002416
:103AE000ED1AAD101E1CAC4204D0A300F358984749
:103AF0000134F8E700F020F8084B094D0024ED1AD6
:103B0000AD101E1CAC4204D0A300F35898470134FA
:103B1000F8E770BD6400002064000020640000200D
:103B200068000020031C8218934202D019700133F0
:103B3000FAE77047FEE7C046F8B5C046F8BC08BCD7
:103B40009E467047F8B5C046F8BC08BC9E46704714
:103B5000080F0000160F0000860F0000240F000061
:103B6000860F0000320F0000400F0000860F00009B
:103B70004E0F00005C0F00006A0F0000780F00007D
:103B8000481B0000C21C0000241C0000361D000061
:103B9000721D00004300000004000020000000002F
:083BA00054C5FF7F0100000085
:103BA8008C00002000000000000000000000000061
:103BB80000000000000000000000000000000000FD
:103BC80000000000943B000000000000000000001E
:103BD80000000000000000000000000000000000DD
:103BE80000000000000000000000000000000000CD
:103BF80000000000000000000000000000000000BD
:103C080000000000BD00000095000000000000005A
:0400000300003915AB
:00000001FF
